:020000022000DC
:100000000D94FA000D9420010D9420010D9420010F
:100010000D9420010D9420010D9420010D942001D8
:100020000D9420010D9420010D9420010D942001C8
:100030000D9420010D9420010D9420010D942001B8
:100040000D9420010D9420010D9420010D942001A8
:100050000D9420010D9420010D9420010D94200198
:100060000D9420010D9420010D9420010D94200188
:100070000D9420010D9420010D9420010D94200178
:100080000D9420010D9420010D9420010D94200168
:100090000D9420010D9420010D9420010D94200158
:1000A0000D9420010D9420010D9420010D94200148
:1000B0000D9420010D9420010D9420010D94200138
:1000C0000D9420010D9420010D9420010D94200128
:1000D0000D9420010D9420010D9420010D94200118
:1000E0000D9420010D9420010D9420010D94200108
:1000F0000D9420010D9420010D9420010D942001F8
:100100000D9420010D9420010D9420010D942001E7
:100110000D9420010D9420010D9420010D942001D7
:100120000D9420010D9420010D9420010D942001C7
:100130000D9420010D9420010D9420010D942001B7
:100140000D9420010D9420010D9420010D942001A7
:100150000D9420010D9420010D9420010D94200197
:100160000D9420010D9420010D9420010D94200187
:100170000D9420010D9420010D9420010D94200177
:100180000D9420010D9420010D9420010D94200167
:100190000D9420010D9420010D9420010D94200157
:1001A0000D9420010D9420010D9420010D94200147
:1001B0000D9420010D9420010D9420010D94200137
:1001C0000D9420010D9420010D9420010D94200127
:1001D0000D9420010D9420010D9420010D94200117
:1001E0000D9420010D9420010D9420010D94200107
:1001F0000D94200111241FBECFEFDFE3DEBFCDBF82
:1002000001E00CBF18BE19BE1ABE1BBE10E2A0E072
:10021000B0E2E6EFFBE002E00BBF02C007900D92F8
:10022000A030B107D9F71BBE10E2A0E0B0E201C0D8
:100230001D92A230B107E1F70F9461020D94F90508
:100240000D940000813610F087550895813410F028
:1002500087530895803310F08053089580E0089507
:100260001F93CF93DF930F92CDB7DEB769830F94BF
:100270002201182F6981862F0F9422011295107F79
:10028000810F0F90DF91CF911F91089520EA36E8FA
:1002900041E050E00F947B05DC01CB01E3E0B69533
:1002A000A79597958795EA95D1F7805A9648A140EA
:1002B000B040BC01CD012AE638E140E050E00F94A7
:1002C0009A05E0EAFBE02683306C37831382858150
:1002D000887F836085838CE184830895CF93C82FC2
:1002E0008D3019F48AE00F946E018091A10B85FF87
:1002F000FCCFC093A00BCF9108958091A10B87FFF5
:10030000FCCF8091A00B08958F708A3010F0895A2D
:1003100001C0805D0F946E010895CF93C82F829520
:100320008F700F9484018C2F0F948401CF910895C6
:10033000CF93DF93EC018D2F82958F700F94840102
:100340008D2F0F948401CE01F4E096958795FA9550
:10035000E1F70F9484018C2F0F948401DF91CF91EA
:100360000895CF93DF93EC0102C00F946E01899141
:100370008823D9F7DF91CF9108950F94FF01089555
:100380000F94F90108950F94440208950F941702F1
:10039000089508953BB78BBFFB0186913BBF08953D
:1003A0003BB78BBFFB01879196913BBF089542E01D
:1003B00083C041E081C08093C00188278093C10140
:1003C0008093C20147E068D0CB0108958093C401B7
:1003D00048E062C08091D00108953BB748E10D9498
:1003E0000E063BB74AE10D940E063BB740E20D9472
:1003F0000E063BB78BBFCB0142E20D940E063BB716
:100400008BBFCB010A0143E20D940E063BB76BBFD5
:10041000FA0119BEDC0140E04093CA0150E0879127
:1004200097918D939D935A95D1F73BBF08953BB714
:100430008BBFCB0144E20D940E063BB78BBFCB01C3
:1004400045E20D940E063BB746E20D940E063BB70F
:100450008BBFCB014AE20D940E063BB78BBFCB019D
:100460004CE20D940E063BB78BBFCB014DE20D94D1
:100470000E0648E311C049E30FC028ED2093340075
:1004800021E02093CC0108952091CF0127FDFCCFDE
:1004900022272093CA0108954093CA0128ED31E034
:1004A000209334003093CB016091C4017091C50159
:1004B0008091C60199270895FC014093CA01849157
:1004C0000895CF93DF93CDB7DEB7C555D040CDBFEC
:1004D000DEBFF894E0E5F0E0128285E08093500002
:1004E00088E08583809150008061809350008091E6
:1004F000510084FFFCCF88ED84BF94E090934000CE
:10050000E0EAF6E098E1928B938B98E09093A10655
:10051000E0E0F8E091E090930008118212821382EB
:10052000148225E0E0E4F0E02383E0E0F4E028EB4F
:100530003BE024873587909300041086118684BFA2
:100540009093800031E1CC24DD247601E0E0F8E0F6
:1005500004C08091030481FD06C08091A80682FD3D
:10056000F8CF20E001C021E010A211A204C08091C8
:10057000030481FD05C08091A80682FFF8CF01C069
:1005800021E0313150F48091200890912108A0E0C1
:10059000B0E0C80ED91EEA1EFB1E315021F0222306
:1005A000E1F221E002C0213029F5E0E0F8E010920C
:1005B0000008118210A211A2E0EAF6E0128A138A62
:1005C000E0EAFBE01382148283E0858316821782BF
:1005D000109200041CBE88ED84BF10924000000001
:1005E00020935000E0E5F0E01582E0910020F091CA
:1005F0000120199564E0F694E794D794C7946A951E
:10060000D1F78FE493EC0197F1F700C00000C70128
:10061000B6010F9446010F947D010F947D0185353D
:1006200009F0BFCF0F947D01853509F0BACF0F9443
:100630007D01853509F0B5CF83E60F946E0184E323
:100640000F946E0185E30F946E0182E60F946E01A4
:1006500082E30F946E0180E20F946E0186E70F949F
:100660006E0182E30F946E018EE20F946E0189E3B6
:100670000F946E018BE40F946E011D8A8DE00F9430
:100680006E018EE30F946E0181E10F946E0110E014
:100690000F947D01E5E1F0E0EC0FFD1FE10FF11D8E
:1006A00080838535A9F3833019F488E58D8B03C0E9
:1006B0001F5F8A3069F7812F90E0FE01E80FF91F74
:1006C000148AFC01329725E130E02C0F3D1FE20F28
:1006D000F31F80818D3009F4108283E10F946E0145
:1006E000CE0145960F94B1019D89973661F09836F9
:1006F00020F4953609F0F9C13CC09D36D1F1903710
:1007000009F0F3C17CC08BE20F946E018DE00F9471
:100710006E0181E10F946E018FE493EC0197F1F784
:1007200000C00000E0E0F8E010920008118210A282
:1007300011A2E0EAF6E0128A138AE0EAFBE01382F3
:10074000148283E0858316821782109200041CBEF7
:1007500088ED84BF10924000000081E0809350003B
:10076000E0E5F0E01582E0910020F091012019957C
:1007700085CF8F89688D66969FAF66970F943001FD
:10078000182F898D6A8D0F94300162961FAF629782
:1007900061961FAE619762960EAD1FAD6297080F0E
:1007A000111D8E898737B9F48B8D6C8D0F943001B4
:1007B000F82E66969FAD6697953641F48091CF01ED
:1007C00087FDFCCFC8016F2D0F94D6058D898D361E
:1007D00011F4F801F0828D89853629F4C8010F944F
:1007E000BC05182F02C0F80110818BE20F946E0136
:1007F0008DE00F946E01812F0F948D013FCF8BE21E
:100800000F946E018DE00F946E0121E02A962FAFB8
:100810002A978E89853619F02A961FAE2A9729962F
:100820001EAE1FAE29972224332444244A94542C0C
:10083000320181E10F946E0110E00F947D01E5E13A
:10084000F0E0EC0FFD1FE10FF11D80831F5F8A3088
:10085000A1F783E10F946E01E4E1F0E0EC0FFD1FDE
:10086000E10FF11D10828E896F890F943001F82EEF
:10087000888D698D0F943001082F2E968FAF2E979B
:100880002D961FAE2D978A8D6B8D0F9430012E966D
:10089000CEACDFAC2E97C80ED11C8C8D6D8D0F9415
:1008A0003001182F0F0D080F0C0DEF2DF0E09F01F8
:1008B000220F331F60962EAF3FAF6097AEE1B0E0DE
:1008C000AC0FBD1FA20FB31F3596EE0FFF1F81E0C7
:1008D00090E08C0F9D1FE80FF91F8C9164890F9495
:1008E000300165968FAF65971230F1F48E8D6F8D64
:1008F0000F9430012C968FAF2C972B961FAE2B9711
:1009000088A169A10F9430012C962EAD3FAD2C9794
:10091000280F311D29962EAF3FAF29972C968FAD0A
:100920002C97820F080F81C0113009F47CC011236D
:1009300009F07BC03FEF43163FEF53063FEF6306DE
:100940003FEF730619F426016624772429968EADAD
:100950009FAD299724E0880F991F2A95E1F74C0154
:10096000AA24BB24840C951CA61CB71CDD24F02EE5
:100970004EC0EEE1F0E0EC0FFD1FE00FF11FAFE124
:10098000B0E0AC0FBD1FA00FB11F80816C910F9420
:100990003001E82EA0E2B0E0AC0FBD1FA00FB11FE8
:1009A000E1E2F0E0EC0FFD1FE00FF11F8C916081A0
:1009B0000F943001282F8E2D820FF80E2A963FAD0E
:1009C0002A97313049F4E1E0F0E0EC0FFD1FE20D31
:1009D000F31DE082218315C0B10180E090E0680D35
:1009E000791D8A1D9B1D64962FAF649763961FAE79
:1009F000639764964EAD5FAD64974E0D511D0F9495
:100A0000BD0182E090E0280E391E94E0D90E0D2D34
:100A100010E060962EAD3FAD6097021713070CF4FF
:100A2000A8CF0F2D02C011E001C010E065963FADC8
:100A30006597030F09F059C08EE20F946E0180E0B4
:100A4000281682E0380610F4812F01C081E02A9632
:100A50002FAD2A97213019F0813009F042C0299634
:100A60002EAD3FAD29976901EE24FF2484E0CC0C24
:100A7000DD1CEE1CFF1C8A95D1F7C40CD51CE61CAE
:100A8000F71C2A963FAD2A97313059F48091CF0157
:100A900087FDFCCFCE010196B601A1010F94CC05D4
:100AA00017C080E0C81680E0D80682E0E80680E043
:100AB000F806D8F4C701B6010F94C0010F94C30122
:100AC000C701B6010F94C6010F94C3010F94C90169
:100AD0008AE20F946E012224332444244A94542C35
:100AE0003201112309F4A5CE02C08DE201C08BE2D0
:100AF0000F946E01C3CD629FD001739FF001829F5E
:100B0000E00DF11D649FE00DF11D929FF00D839F9C
:100B1000F00D749FF00D659FF00D9927729FB00D39
:100B2000E11DF91F639FB00DE11DF91FBD01CF014C
:100B300011240895A1E21A2EAA1BBB1BFD010DC0B2
:100B4000AA1FBB1FEE1FFF1FA217B307E407F5077D
:100B500020F0A21BB30BE40BF50B661F771F881F59
:100B6000991F1A9469F760957095809590959B01EF
:100B7000AC01BD01CF01089503D08081992708956C
:100B8000E0ECF1E0378537FDFDCF34853860348700
:100B9000FC01E050F04F0895DC01CB0103C02D9122
:100BA0000F94D70541505040D0F70895262FE0EC20
:100BB000F1E0378537FDFDCF3485377F34873785C2
:100BC00031FF09C036E3328738ED34BF31E0338777
:100BD000378537FDFDCF33E33287808391831282DF
:100BE000248325E3228728ED31E024BF3387019653
:060BF0000895F894FFCF08
:100BF600EE27FF2719BEDC0143E24093CA0150E00D
:100C06002DE90D901D9020933400E89532965A9563
:100C1600C1F711240895FC014093CA012DE92093E0
:100C26003400E89511243BBF0895FC014093CA01A6
:100C36004F935F936F9364E06093A2004CE051E0A2
:100C4600509348000DE900933400E8954093CD0198
:0E0C5600889511243BBF6F915F914F910895D7
:0400000320000000D9
:00000001FF
