:1038000010E0A0E6B0E0EAE0FFE302C005900D9210
:10381000A036B107D9F710E0A0E6B0E001C01D92D4
:10382000A236B107E1F7CFE5D4E0DEBFCDBF11246A
:103830001FBE79C0813610F087550895813410F08D
:1038400087530895803310F08053089580E00895E1
:103850001F93CF93DF930F92CDB7DEB769830E949A
:103860001A1C182F6981862F0E941A1C1295107F2E
:10387000810F0F90DF91CF911F91089524E09695CD
:1038800087952A95E1F790BD89B988E18AB986E8DC
:1038900080BD0895CF93C82F8D3019F48AE00E941F
:1038A0004A1C5D9BFECFCCB9CF9108955F9BFECFA4
:1038B0008CB108958F708A3010F0895A01C0805DF4
:1038C0000E944A1C0895CF93C82F82958F700E9442
:1038D0005A1C8C2F0E945A1CCF910895CF93DF93CE
:1038E000EC018D2F82958F700E945A1C8D2F0E94A3
:1038F0005A1CCE0134E0969587953A95E1F70E94DF
:103900005A1C8C2F0E945A1CDF91CF910895CF939F
:10391000DF93EC0102C00E944A1C89918823D9F7E9
:10392000DF91CF910895CF93DF93CDB7DEB7C35525
:10393000D0400FB6F894DEBF0FBECDBFF89482B36F
:10394000836082BBB89AC0981FBC81E08EBD84B7EB
:10395000877F84BF81B5886181BD11BC40E050E0A4
:10396000BA0131E100E010E00CC04F5F5F4F6F4FD4
:103970007F4F41308AE6580788E1680780E0780782
:1039800020F48099F2CF20E001C021E01DBC1CBCD6
:103990000CC04F5F5F4F6F4F7F4F41309AE6590722
:1039A00098E1690790E0790718F4809BF2CF01C095
:1039B00021E0313120F48CB59DB5080F191F31502D
:1039C00019F02223F1F202C0213081F41EBC1DBC8B
:1039D0001CBC82B38C7F82BB10BC19B81AB886E8B5
:1039E00080BDE0916000F0916100099544E016957A
:1039F00007954A95E1F7EFE4F3EC3197F1F700C052
:103A00000000C8010E943E1C0E94561C0E94561CC9
:103A10008535E1F60E94561C8535C1F60E94561C7C
:103A20008535A1F60E94561C8535E1F3C09A83E6E0
:103A30000E944A1C84E30E944A1C85E30E944A1C9F
:103A400082E60E944A1C82E30E944A1C80E20E9495
:103A50004A1C86E70E944A1C82E30E944A1C8EE2AE
:103A60000E944A1C89E30E944A1C8BE40E944A1C63
:103A70001D8AC09A8DE00E944A1C8EE30E944A1C57
:103A800081E10E944A1C5E9A5E9BFECFC09810E0C6
:103A90000E94561CE5E1F0E0EC0FFD1FE10FF11D67
:103AA00080838535A9F3833019F488E58D8B03C0B5
:103AB0001F5F8A3069F7812F90E0E4E1F0E0EC0FBE
:103AC000FD1FE80FF91F1082FC01329785E190E09D
:103AD0008C0F9D1FE80FF91F80818D3009F4108233
:103AE000C09A83E10E944A1CCE0145960E94871C21
:103AF0009D89973661F0983620F4953609F0E0C13B
:103B000027C09D3629F1903709F0DAC165C08BE2F4
:103B10000E944A1C8DE00E944A1C81E10E944A1CBE
:103B2000EFE4F3EC3197F1F700C000001EBC1DBCC0
:103B30001CBCC09882B38C7F82BB10BC19B81AB869
:103B400086E880BDE0916000F0916100099591CF19
:103B50008F89688D62969FAF62970E94281C182FEC
:103B6000898D6A8D0E94281C2F961FAF2F972E9645
:103B70001FAE2E972F960EAD1FAD2F97080F111D5C
:103B80008E898737A9F48B8D6C8D0E94281CE82EB6
:103B900062969FAD6297953631F4E199FECFC801E8
:103BA0006E2D0E94781F8D898D3611F4F801E08208
:103BB0008D89853629F4C8010E94661F182F02C01E
:103BC000F80110818BE20E944A1C8DE00E944A1C81
:103BD000812F0E94631C4DCF8BE20E944A1C8DE016
:103BE0000E944A1C662463948E89853609F06624F7
:103BF00022243324CC24DD2488248A94982C540154
:103C000081E10E944A1C5E9A5E9BFECFC09810E044
:103C10000E94561CE5E1F0E0EC0FFD1FE10FF11DE5
:103C200080831F5F8A30A1F7C09A83E10E944A1CFB
:103C3000E4E1F0E0EC0FFD1FE10FF11D10828E8931
:103C40006F890E94281CE82E888D698D0E94281C8F
:103C5000082F2B968FAF2B972A961FAE2A978A8D07
:103C60006B8D0E94281C2B964EAC5FAC2B97480E98
:103C7000511C8C8D6D8D0E94281C182F0E0D080F65
:103C8000040DEE2DF0E0CF01880F991F2D969FAF08
:103C90008EAF2D97AEE1B0E0AC0FBD1FA80FB91FDE
:103CA0003596EE0FFF1F81E090E08C0F9D1FE80F0F
:103CB000F91F8C9164890E94281CF82E1230D1F4CF
:103CC0008E8D6F8D0E94281C29968FAF299728967C
:103CD0001FAE289788A169A10E94281C29962EACA6
:103CE0003FAC2997280E311C29968FAD2997820D5C
:103CF000080F90C0113009F48BC0112309F08AC05D
:103D00009FEF89169FEF99069FEFA9069FEFB906CF
:103D100019F44201AA24BB24210194E0440C551C4F
:103D20009A95E1F7480C591C20E077247394A1017F
:103D3000E02EC201140125015C015BC0EEE1F0E060
:103D4000EC0FFD1FE00FF11FAFE1B0E0AC0FBD1FA6
:103D5000A00FB11F80816C9162962FAF629763961E
:103D60004FAF639764965FAF64970E94281C882EBC
:103D7000A0E2B0E0AC0FBD1FA00FB11FE1E2F0E088
:103D8000EC0FFD1FE00FF11F8C9160810E94281C39
:103D9000982D980FE90E62962FAD629763964FADFE
:103DA000639764965FAD6497E1E06E1649F4E1E0D5
:103DB000F0E0EC0FFD1FEC0DFD1D8082818314C02F
:103DC000F601EA0DFB1D61968FAF619760961FAEFD
:103DD000609761968EAD9FAD6197880D911D0C0126
:103DE00070925700E895112482E090E0C80ED91E29
:103DF0002C5F022F10E02D96EEADFFAD2D970E1724
:103E00001F070CF49BCF520141011A010E2D02C075
:103E100011E001C010E00F0D09F052C08EE20E94C7
:103E20004A1CF0E8CF16D10410F4812F01C081E0C4
:103E300091E0691619F0813009F03EC0A10160E0FF
:103E400070E084E0440F551F661F771F8A95D1F7F5
:103E5000480D591D6A1D7B1DE1E06E1649F4E1997C
:103E6000FECFCE010196BA01A6010E946E1F1BC0B3
:103E70004030F8E35F07F0E06F07F0E07F0700F500
:103E8000FA0183E080935700E89507B600FCFDCF68
:103E900085E080935700E89507B600FCFDCF81E1EF
:103EA00080935700E8958AE20E944A1CCC24DD24C6
:103EB00088248A94982C5401112309F4A1CE02C0BD
:103EC0008DE201C08BE20E944A1CD3CDE199FECF66
:103ED0009FBB8EBBE09A99278DB30895DC01CB017F
:103EE00003C02D910E94791F41505040D0F7089592
:103EF000262FE199FECF9FBB8EBB2DBB0FB6F8944A
:0A3F0000E29AE19A0FBE01960895BF
:0400000300003800C1
:00000001FF
