:020000021000EC
:10F8000011E0A0E0B1E0E2E8FFEF01E00BBF02C0D1
:10F8100007900D92A030B107D9F71BBE11E0A0E010
:10F82000B1E001C01D92A230B107E1F7CFEFD0E106
:10F83000DEBFCDBF11241FBE83C0813610F08755B7
:10F840000895813410F087530895803310F0805369
:10F85000089580E008951F93CF93DF930F92CDB763
:10F86000DEB769830E941DFC182F6981862F0E94D4
:10F870001DFC1295107F810F0F90DF91CF911F918A
:10F88000089524E0969587952A95E1F7909398003E
:10F890008093990088E180939A0086E080939D0090
:10F8A0000895CF93C82F8D3019F48AE00E9451FC3F
:10F8B00080919B0085FFFCCFC0939C00CF91089561
:10F8C00080919B0087FFFCCF80919C0008958F70F2
:10F8D0008A3010F0895A01C0805D0E9451FC089561
:10F8E000CF93C82F82958F700E9467FC8C2F0E9447
:10F8F00067FCCF910895CF93DF93EC018D2F829514
:10F900008F700E9467FC8D2F0E9467FCCE0134E04F
:10F91000969587953A95E1F70E9467FC8C2F0E9497
:10F9200067FCDF91CF910895CF93DF93EC0102C084
:10F930000E9451FC89918823D9F7DF91CF910895D6
:10F94000CF93DF93CDB7DEB7C755D0400FB6F8944D
:10F95000DEBF0FBECDBFF89482B38C6082BB8D9AA0
:10F9600095981FBC81E08EBD84B7877F84BF81B529
:10F97000886181BD11BC40E050E0BA0131E100E096
:10F9800010E00CC04F5F5F4F6F4F7F4F41302AE652
:10F99000520728E1620720E0720720F48299F2CF33
:10F9A00020E001C021E01DBC1CBC0CC04F5F5F4FBC
:10F9B0006F4F7F4F41308AE6580788E1680780E043
:10F9C000780718F4829BF2CF01C021E0313120F496
:10F9D0008CB59DB5080F191F315019F02223F1F293
:10F9E00002C02130A1F41EBC1DBC1CBC82B3837FAD
:10F9F00082BB109298001092990010929A0086E0B3
:10FA000080939D00E0910001F0910101099564E06F
:10FA1000169507956A95E1F7EFE4F3EC3197F1F766
:10FA200000C00000C8010E9441FC0E9460FC0E94CE
:10FA300060FC8535C1F60E9460FC8535A1F60E9408
:10FA400060FC853581F60E9460FC8535E1F3959A6E
:10FA500083E60E9451FC84E30E9451FC85E30E94EE
:10FA600051FC82E60E9451FC82E30E9451FC80E23C
:10FA70000E9451FC86E70E9451FC82E30E9451FCE7
:10FA80008EE20E9451FC89E30E9451FC8BE40E94AB
:10FA900051FC1D8A959A8DE00E9451FC8EE30E94D4
:10FAA00051FC81E10E9451FC80919B008064809315
:10FAB0009B0080919B0086FFFCCF959810E00E94F0
:10FAC00060FCE5E1F0E0EC0FFD1FE10FF11D80832C
:10FAD0008535A9F3833019F488E58D8B03C01F5F4A
:10FAE0008A3069F7812F90E0E4E1F0E0EC0FFD1F30
:10FAF000E80FF91F1082FC01329725E130E02C0F4E
:10FB00003D1FE20FF31F80818D3009F41082959A1A
:10FB100083E10E9451FCCE0145960E9494FC9D8990
:10FB2000973661F0983620F4953609F005C22BC05F
:10FB30009D3649F1903709F0FFC169C08BE20E9400
:10FB400051FC8DE00E9451FC81E10E9451FC8FE448
:10FB500093EC0197F1F700C000001EBC1DBC1CBC5B
:10FB6000959882B3837F82BB10929800109299007F
:10FB700010929A0086E080939D00E0910001F09140
:10FB80000101099587CF8F89688D68969FAF689727
:10FB90000E942BFC182F898D6A8D0E942BFC619688
:10FBA0001FAF619760961FAE609761960EAD1FAD57
:10FBB0006197080F111D8E898737A9F48B8D6C8D85
:10FBC0000E942BFCE82E68969FAD6897953631F41D
:10FBD000E199FECFC8016E2D0E94B4FF8D898D364C
:10FBE00011F4F801E0828D89853629F4C8010E945C
:10FBF000A2FF182F02C0F80110818BE20E9451FC75
:10FC00008DE00E9451FC812F0E9470FC43CF8BE25B
:10FC10000E9451FC8DE00E9451FC222423948E8985
:10FC2000853609F0222429961FAE1EAE2997CC24D2
:10FC3000DD2444244A94542C320181E10E9451FC79
:10FC400080919B00806480939B0080919B0086FF45
:10FC5000FCCF959810E00E9460FCE5E1F0E0EC0F2D
:10FC6000FD1FE10FF11D80831F5F8A30A1F7959A78
:10FC700083E10E9451FCE4E1F0E0EC0FFD1FE10F95
:10FC8000F11D10828E896F890E942BFCE82E888DD1
:10FC9000698D0E942BFC082F2D968FAF2D972C96E7
:10FCA0001FAE2C978A8D6B8D0E942BFC2D968EACEF
:10FCB0009FAC2D97880E911C8C8D6D8D0E942BFC16
:10FCC000182F0E0D080F080DEE2DF0E09F01220FEA
:10FCD000331F2F963FAF2EAF2F97AEE1B0E0AC0FA2
:10FCE000BD1FA20FB31F3596EE0FFF1F81E090E0FE
:10FCF0008C0F9D1FE80FF91F8C9164890E942BFCCB
:10FD0000F82E1230F1F48E8D6F8D0E942BFC2B9605
:10FD10008FAF2B972A961FAE2A9788A169A10E94C0
:10FD20002BFC2B962EAD3FAD2B97280F311D29961E
:10FD30003FAF2EAF29972B968FAD2B97820F080FD1
:10FD400099C0113009F494C0112309F093C03FEF1A
:10FD500043163FEF53063FEF63063FEF730619F478
:10FD600024016624772429968EAD9FAD299724E03F
:10FD7000880F991F2A95E1F74C01AA24BB24840C13
:10FD8000951CA61CB71C20E03324339467964CAE18
:10FD90005DAE6EAE7FAE67972601E02E56C0EEE1F7
:10FDA000F0E0EC0FFD1FE00FF11FAFE1B0E0AC0F92
:10FDB000BD1FA00FB11F80816C9168962FAF68970F
:10FDC0000E942BFCC82EA0E2B0E0AC0FBD1FA00F1C
:10FDD000B11FE1E2F0E0EC0FFD1FE00FF11F8C918D
:10FDE00060810E942BFC9C2D980FE90E68962FAD28
:10FDF000689791E0291649F4E1E0F0E0EC0FFD1F6F
:10FE0000E40DF51DC08281831BC0A20160E070E09B
:10FE1000480D591D6A1D7B1D63968FAF63976296CF
:10FE20001FAE629763968EAD9FAD63978C0D911D4B
:10FE30000C01FA0160935B0030926800E895112490
:10FE4000E2E0F0E04E0E5F1E2C5F022F10E02F96D6
:10FE50008EAD9FAD2F97081719070CF4A0CF620144
:10FE600067964CAC5DAC6EAC7FAC67970E2D02C054
:10FE700011E001C010E00F0D09F05EC08EE20E949B
:10FE800051FC9FEFC916D10409F010F4812F01C075
:10FE900081E0E1E02E1619F0813009F049C0299681
:10FEA0002EAD3FAD2997A90160E070E084E0440FDA
:10FEB000551F661F771F8A95D1F7440D551D661D86
:10FEC000771D31E0231649F4E199FECFCE0101966A
:10FED000BA01A6010E94AAFF22C0403088EF58074D
:10FEE00081E0680780E0780738F583E0FA016093E5
:10FEF0005B0080936800E8958091680080FDFCCFEE
:10FF000085E0FA0160935B0080936800E89580913A
:10FF1000680080FDFCCF81E180936800E8958AE26B
:10FF20000E9451FCCC24DD2444244A94542C3201F8
:10FF3000112309F482CE02C08DE201C08BE20E943F
:10FF400051FCA8CDE199FECF9FBB8EBBE09A9927CB
:10FF50008DB30895DC01CB0103C02D910E94B5FF44
:10FF600041505040D0F70895262FE199FECF9FBB16
:10FF70008EBB2DBB0FB6F894E29AE19A0FBE0196A4
:02FF80000895E2
:040000031000F800F1
:00000001FF
