:1018000010E0A0E6B0E0E0E6FEE102C005900D9237
:10181000A036B107D9F710E0A0E6B0E001C01D92F4
:10182000A236B107E1F7CFE5D2E0DEBFCDBF11248C
:101830001FBE6EC0813610F087550895813410F0B8
:1018400087530895803310F08053089580E0089501
:101850001F93CF93DF930F92CDB7DEB76983EADF93
:10186000182F6981862FE6DF1295107F810F0F9068
:10187000DF91CF911F91089524E0969587952A9541
:10188000E1F790BD89B988E18AB986E880BD0895FD
:10189000CF93C82F8D3011F48AE0FADF5D9BFECF25
:1018A000CCB9CF9108955F9BFECF8CB108958F7016
:1018B0008A3010F0895A01C0805DEADF0895CF9325
:1018C000C82F82958F70F3DF8C2FF1DFCF910895B1
:1018D000CF93DF93EC018D2F82958F70E8DF8D2FF2
:1018E000E6DFCE0134E0969587953A95E1F7DFDFA4
:1018F0008C2FDDDFDF91CF910895CF93DF93EC0143
:1019000001C0C6DF89918823E1F7DF91CF91089567
:10191000CF93DF93CDB7DEB7C355D0400FB6F89461
:10192000DEBF0FBECDBFF89482B3836082BB1FBC05
:1019300081E08EBD84B7877F84BF81B5886181BD1A
:1019400011BC40E050E0BA0131E100E010E00CC011
:101950004F5F5F4F6F4F7F4F41308AE6580788E1F6
:10196000680780E0780720F48099F2CF20E001C07A
:1019700021E01DBC1CBC0CC04F5F5F4F6F4F7F4F01
:1019800041309AE6590798E1690790E0790718F421
:10199000809BF2CF01C021E0313120F48CB59DB5A0
:1019A000080F191F315019F02223F1F202C0213023
:1019B00081F41EBC1DBC1CBC82B38C7F82BB10BCDE
:1019C00019B81AB886E880BDE0916000F091610016
:1019D000099544E0169507954A95E1F7EFE4F3EC95
:1019E0003197F1F700C00000C80146DF5CDF5BDF24
:1019F0008535F9F658DF8535E1F655DF8535C9F6C9
:101A000083E646DF84E344DF85E342DF82E640DFAE
:101A100082E33EDF80E23CDF86E73ADF82E338DFC5
:101A20008EE236DF89E334DF8BE432DF1D8A8DE01E
:101A30002FDF8EE32DDF81E12BDF10E034DFE5E1E6
:101A4000F0E0EC0FFD1FE10FF11D80838535B1F350
:101A5000833019F488E58D8B03C01F5F8A3071F7DE
:101A6000812F90E0FE01E80FF91F148AFC013297E4
:101A700085E190E08C0F9D1FE80FF91F80818D306C
:101A800009F4108283E104DFCE01459636DF9D899B
:101A9000973661F0983620F4953609F0BEC123C020
:101AA0009D3609F1903709F0B8C159C08BE2F0DEDC
:101AB0008DE0EEDE81E1ECDEEFE4F3EC3197F1F75F
:101AC00000C000001EBC1DBC1CBC82B38C7F82BB4E
:101AD00010BC19B81AB886E880BDE0916000F0919A
:101AE00061000995A4CF8F89688D62969FAF629738
:101AF000AFDE182F898D6A8DABDE2F961FAF2F9723
:101B00002E961FAE2E972F960EAD1FAD2F97080F56
:101B1000111D8E89873799F48B8D6C8D99DEE82E97
:101B200062969FAD6297953629F4E199FECFC80180
:101B30006E2D89D18D898D3611F4F801E0828D8961
:101B4000853621F4C8016ED1182F02C0F80110812A
:101B50008BE29EDE8DE09CDE812FB1DE68CF8BE2D2
:101B600097DE8DE095DE662463948E89853609F0D4
:101B7000662422243324CC24DD2488248A94982CBF
:101B8000540181E185DE10E08EDEE5E1F0E0EC0F4E
:101B9000FD1FE10FF11D80831F5F8A30A9F783E1EC
:101BA00077DEE4E1F0E0EC0FFD1FE10FF11D1082A4
:101BB0008E896F894DDEE82E888D698D49DE082F6C
:101BC0002B968FAF2B972A961FAE2A978A8D6B8DF7
:101BD0003FDE2B964EAC5FAC2B97480E511C8C8D84
:101BE0006D8D36DE182F0E0D080F040DEE2DF0E072
:101BF000CF01880F991F2D969FAF8EAF2D97AEE125
:101C0000B0E0AC0FBD1FA80FB91F3596EE0FFF1F38
:101C100081E090E08C0F9D1FE80FF91F8C91648983
:101C200017DEF82E1230C1F48E8D6F8D11DE2996DD
:101C30008FAF299728961FAE289788A169A108DE43
:101C400029962EAC3FAC2997280E311C29968FADD2
:101C50002997820D080F8EC0113009F489C0112315
:101C600009F088C09FEF89169FEF99069FEFA9069C
:101C70009FEFB90619F44201AA24BB24210194E084
:101C8000440C551C9A95E1F7480C591C20E0772428
:101C90007394A101E02EC201140125015C0159C019
:101CA000EEE1F0E0EC0FFD1FE00FF11FAFE1B0E05F
:101CB000AC0FBD1FA00FB11F80816C9162962FAF3A
:101CC000629763964FAF639764965FAF6497C0DD8A
:101CD000882EA0E2B0E0AC0FBD1FA00FB11FE1E263
:101CE000F0E0EC0FFD1FE00FF11F8C916081B0DD83
:101CF000982D980FE90E62962FAD629763964FADBF
:101D0000639764965FAD6497E1E06E1649F4E1E095
:101D1000F0E0EC0FFD1FEC0DFD1D8082818314C0EF
:101D2000F601EA0DFB1D61968FAF619760961FAEBD
:101D3000609761968EAD9FAD6197880D911D0C01E6
:101D400070925700E895112482E090E0C80ED91EE9
:101D50002C5F022F10E02D96EEADFFAD2D970E17E4
:101D60001F070CF49DCF520141011A010E2D02C034
:101D700011E001C010E00F0D09F04FC08EE288DDC8
:101D8000F0E4CF16D10410F4812F01C081E091E07E
:101D9000691619F0813009F03CC0A10160E070E0E3
:101DA00084E0440F551F661F771F8A95D1F7480DB1
:101DB000591D6A1D7B1DE1E06E1641F4E199FECFCD
:101DC000CE010196BA01A60135D01BC04030F8E122
:101DD0005F07F0E06F07F0E07F07F8F4FA0183E0B7
:101DE00080935700E89507B600FCFDCF85E080930F
:101DF0005700E89507B600FCFDCF81E180935700BE
:101E0000E8958AE245DDCC24DD2488248A94982C48
:101E10005401112309F4B5CE02C08DE201C08BE25A
:101E200037DD05CEE199FECF9FBB8EBBE09A9927A7
:101E30008DB30895DC01CB0102C02D9105D0415036
:101E40005040D8F70895262FE199FECF9FBB8EBB57
:101E50002DBB0FB6F894E29AE19A0FBE0196089551
:0400000300001800E1
:00000001FF
