:1018000010E0A0E6B0E0EAE8FEE102C005900D922B
:10181000A036B107D9F710E0A0E6B0E001C01D92F4
:10182000A236B107E1F7CFE5D4E0DEBFCDBF11248A
:101830001FBE6EC0813610F087550895813410F0B8
:1018400087530895803310F08053089580E0089501
:101850001F93CF93DF930F92CDB7DEB76983EADF93
:10186000182F6981862FE6DF1295107F810F0F9068
:10187000DF91CF911F91089524E0969587952A9541
:10188000E1F790BD89B988E18AB986E880BD0895FD
:10189000CF93C82F8D3011F48AE0FADF5D9BFECF25
:1018A000CCB9CF9108955F9BFECF8CB108958F7016
:1018B0008A3010F0895A01C0805DEADF0895CF9325
:1018C000C82F82958F70F3DF8C2FF1DFCF910895B1
:1018D000CF93DF93EC018D2F82958F70E8DF8D2FF2
:1018E000E6DFCE0134E0969587953A95E1F7DFDFA4
:1018F0008C2FDDDFDF91CF910895CF93DF93EC0143
:1019000001C0C6DF89918823E1F7DF91CF91089567
:10191000CF93DF93CDB7DEB7C355D0400FB6F89461
:10192000DEBF0FBECDBFF89482B3836082BB8C9ABA
:1019300094981FBC81E08EBD84B7877F84BF81B53A
:10194000886181BD11BC40E050E0BA0131E100E0A6
:1019500010E00CC04F5F5F4F6F4F7F4F41308AE602
:10196000580788E1680780E0780720F48099F2CF73
:1019700020E001C021E01DBC1CBC0CC04F5F5F4FCC
:101980006F4F7F4F41309AE6590798E1690790E021
:10199000790718F4809BF2CF01C021E0313120F4A7
:1019A0008CB59DB5080F191F315019F02223F1F2A3
:1019B00002C0213081F41EBC1DBC1CBC82B38C7FD4
:1019C00082BB10BC19B81AB886E880BDE0916000EF
:1019D000F0916100099544E0169507954A95E1F765
:1019E000EFE4F3EC3197F1F700C00000C80144DFE9
:1019F0005ADF59DF8535F9F656DF8535E1F653DFD5
:101A00008535C9F650DF8535E9F3949A83E640DFE2
:101A100084E33EDF85E33CDF82E63ADF82E338DFC2
:101A200080E236DF86E734DF82E332DF8EE230DFCA
:101A300089E32EDF8BE42CDF1D8A949A8DE028DF6A
:101A40008EE326DF81E124DF5E9A5E9BFECF9498D1
:101A500010E029DFE5E1F0E0EC0FFD1FE10FF11DE3
:101A600080838535B1F3833019F488E58D8B03C00D
:101A70001F5F8A3071F7812F90E0E4E1F0E0EC0F16
:101A8000FD1FE80FF91F1082FC01329785E190E0FD
:101A90008C0F9D1FE80FF91F80818D3009F4108293
:101AA000949A83E1F5DECE01459627DF9D8997362E
:101AB00061F0983620F4953609F0C4C124C09D36F3
:101AC00011F1903709F0BEC15AC08BE2E1DE8DE022
:101AD000DFDE81E1DDDEEFE4F3EC3197F1F700C00A
:101AE00000001EBC1DBC1CBC949882B38C7F82BBC2
:101AF00010BC19B81AB886E880BDE0916000F0917A
:101B0000610009959ACF8F89688D62969FAF629721
:101B10009FDE182F898D6A8D9BDE2F961FAF2F9722
:101B20002E961FAE2E972F960EAD1FAD2F97080F36
:101B3000111D8E89873799F48B8D6C8D89DEE82E87
:101B400062969FAD6297953629F4E199FECFC80160
:101B50006E2D8ED18D898D3611F4F801E0828D893C
:101B6000853621F4C80173D1182F02C0F801108105
:101B70008BE28EDE8DE08CDE812FA1DE5ECF8BE2EC
:101B800087DE8DE085DE662463948E89853609F0D4
:101B9000662422243324CC24DD2488248A94982C9F
:101BA000540181E175DE5E9A5E9BFECF949810E051
:101BB0007ADEE5E1F0E0EC0FFD1FE10FF11D80831F
:101BC0001F5F8A30A9F7949A83E162DEE4E1F0E0D6
:101BD000EC0FFD1FE10FF11D10828E896F8938DE39
:101BE000E82E888D698D34DE082F2B968FAF2B97CA
:101BF0002A961FAE2A978A8D6B8D2ADE2B964EACC5
:101C00005FAC2B97480E511C8C8D6D8D21DE182FEB
:101C10000E0D080F040DEE2DF0E0CF01880F991F77
:101C20002D969FAF8EAF2D97AEE1B0E0AC0FBD1FEC
:101C3000A80FB91F3596EE0FFF1F81E090E08C0FC3
:101C40009D1FE80FF91F8C91648902DEF82E123077
:101C5000C1F48E8D6F8DFCDD29968FAF2997289664
:101C60001FAE289788A169A1F3DD29962EAC3FAC61
:101C70002997280E311C29968FAD2997820D080FC0
:101C80008EC0113009F489C0112309F088C09FEF7C
:101C900089169FEF99069FEFA9069FEFB90619F4E1
:101CA0004201AA24BB24210194E0440C551C9A95BE
:101CB000E1F7480C591C20E077247394A101E02E31
:101CC000C201140125015C0159C0EEE1F0E0EC0F06
:101CD000FD1FE00FF11FAFE1B0E0AC0FBD1FA00F83
:101CE000B11F80816C9162962FAF629763964FAF60
:101CF000639764965FAF6497ABDD882EA0E2B0E097
:101D0000AC0FBD1FA00FB11FE1E2F0E0EC0FFD1F13
:101D1000E00FF11F8C9160819BDD982D980FE90EEB
:101D200062962FAD629763964FAD639764965FADF1
:101D30006497E1E06E1649F4E1E0F0E0EC0FFD1F7E
:101D4000EC0DFD1D8082818314C0F601EA0DFB1DA0
:101D500061968FAF619760961FAE609761968EAD6A
:101D60009FAD6197880D911D0C0170925700E89509
:101D7000112482E090E0C80ED91E2C5F022F10E0E3
:101D80002D96EEADFFAD2D970E171F070CF49DCFCE
:101D9000520141011A010E2D02C011E001C010E0F4
:101DA0000F0D09F04FC08EE273DDF0E4CF16D104C1
:101DB00010F4812F01C081E091E0691619F08130A3
:101DC00009F03CC0A10160E070E084E0440F551FC1
:101DD000661F771F8A95D1F7480D591D6A1D7B1D17
:101DE000E1E06E1641F4E199FECFCE010196BA0111
:101DF000A60135D01BC04030F8E15F07F0E06F0767
:101E0000F0E07F07F8F4FA0183E080935700E8954B
:101E100007B600FCFDCF85E080935700E89507B634
:101E200000FCFDCF81E180935700E8958AE230DD28
:101E3000CC24DD2488248A94982C5401112309F49D
:101E4000B0CE02C08DE201C08BE222DDF6CDE19979
:101E5000FECF9FBB8EBBE09A99278DB30895DC011E
:101E6000CB0102C02D9105D041505040D8F70895C4
:101E7000262FE199FECF9FBB8EBB2DBB0FB6F894EA
:0A1E8000E29AE19A0FBE0196089560
:0400000300001800E1
:00000001FF
