:10F8000011E0A0E0B1E0E2E5FFEF02C005900D924B
:10F81000A030B107D9F711E0A0E0B1E001C01D921E
:10F82000A230B107E1F7CFEFD0E1DEBFCDBF1124A9
:10F830001FBE83C0813610F087550895813410F0C3
:10F8400087530895803310F08053089580E0089521
:10F850001F93CF93DF930F92CDB7DEB769830E94DA
:10F860001A7C182F6981862F0E941A7C1295107FAE
:10F87000810F0F90DF91CF911F91089524E096950D
:10F8800087952A95E1F79093C5008093C40088E19D
:10F890008093C10086E08093C2000895CF93C82F63
:10F8A0008D3019F48AE00E944E7C8091C00085FF63
:10F8B000FCCFC093C600CF9108958091C00087FF10
:10F8C000FCCF8091C60008958F708A3010F0895A5D
:10F8D00001C0805D0E944E7C0895CF93C82F829511
:10F8E0008F700E94647C8C2F0E94647CCF9108955D
:10F8F000CF93DF93EC018D2F82958F700E94647CF3
:10F900008D2F0E94647CCE0134E0969587953A95C0
:10F91000E1F70E94647C8C2F0E94647CDF91CF9180
:10F920000895CF93DF93EC0102C00E944E7C899131
:10F930008823D9F7DF91CF910895CF93DF93CDB787
:10F94000DEB7C355D0400FB6F894DEBF0FBECDBFB3
:10F95000F8948BB183608BB9209A2898109280001C
:10F9600081E08093810084B7877F84BF80916000AD
:10F9700088618093600086E48093600031E100E05C
:10F9800010E004C08091600087FD04C04899FACF60
:10F9900020E001C021E0109285001092840004C094
:10F9A0008091600087FD03C0489BFACF01C021E031
:10F9B000313130F48091840090918500080F191F37
:10F9C000315019F0222311F321E080916000886109
:10F9D00080936000109260002130B9F41092810091
:10F9E00010928500109284008BB18C7F8BB910929D
:10F9F000C5001092C4001092C10086E08093C2003E
:10FA0000E0910001F0910101099544E016950795F8
:10FA10004A95E1F78FE493EC0197F1F700C00000FD
:10FA2000C8010E943E7C0E945D7C0E945D7C853501
:10FA3000A9F60E945D7C853589F60E945D7C85353E
:10FA400069F60E945D7C8535E1F3289A83E60E9481
:10FA50004E7C84E30E944E7C85E30E944E7C82E6CD
:10FA60000E944E7C82E30E944E7C80E20E944E7C8B
:10FA700086E70E944E7C82E30E944E7C8EE20E94CA
:10FA80004E7C89E30E944E7C8BE40E944E7C1D8A52
:10FA9000289A8DE00E944E7C8EE30E944E7C81E18C
:10FAA0000E944E7C8091C00080648093C000809151
:10FAB000C00086FFFCCF289810E00E945D7CE5E145
:10FAC000F0E0EC0FFD1FE10FF11D80838535A9F3F8
:10FAD000833019F488E58D8B03C01F5F8A3069F786
:10FAE000812F90E0E4E1F0E0EC0FFD1FE80FF91F3B
:10FAF0001082FC01329785E190E08C0F9D1FE80F8A
:10FB0000F91F80818D3009F41082289A83E10E94C8
:10FB10004E7CCE0145960E94917C9D89973661F07E
:10FB2000983620F4953609F0EEC12EC09D3661F16D
:10FB3000903709F0E8C16CC08BE20E944E7C8DE0EA
:10FB40000E944E7C81E10E944E7CEFE4F3EC319701
:10FB5000F1F700C000001092810010928500109211
:10FB6000840028988BB18C7F8BB91092C5001092BD
:10FB7000C4001092C10086E08093C200E0910001B1
:10FB8000F0910101099584CF8F89688D62969FAFAE
:10FB900062970E94287C182F898D6A8D0E94287C8C
:10FBA0002F961FAF2F972E961FAE2E972F960EAD26
:10FBB0001FAD2F97080F111D8E898737A9F48B8DE4
:10FBC0006C8D0E94287CE82E62969FAD62979536D8
:10FBD00031F4F999FECFC8016E2D0E949B7F8D896B
:10FBE0008D3611F4F801E0828D89853629F4C8013B
:10FBF0000E94897F182F02C0F80110818BE20E94B9
:10FC00004E7C8DE00E944E7C812F0E946D7C40CF07
:10FC10008BE20E944E7C8DE00E944E7C66246394B1
:10FC20008E89853609F0662422243324CC24DD24F1
:10FC300088248A94982C540181E10E944E7C809102
:10FC4000C00080648093C0008091C00086FFFCCF1C
:10FC5000289810E00E945D7CE5E1F0E0EC0FFD1FCC
:10FC6000E10FF11D80831F5F8A30A1F7289A83E19D
:10FC70000E944E7CE4E1F0E0EC0FFD1FE10FF11D6E
:10FC800010828E896F890E94287CE82E888D698D6C
:10FC90000E94287C082F2B968FAF2B972A961FAE99
:10FCA0002A978A8D6B8D0E94287C2B964EAC5FAC78
:10FCB0002B97480E511C8C8D6D8D0E94287C182F1F
:10FCC0000E0D080F040DEE2DF0E0CF01880F991FE7
:10FCD0002D969FAF8EAF2D97AEE1B0E0AC0FBD1F5C
:10FCE000A80FB91F3596EE0FFF1F81E090E08C0F33
:10FCF0009D1FE80FF91F8C9164890E94287CF82EC3
:10FD00001230D1F48E8D6F8D0E94287C29968FAF92
:10FD1000299728961FAE289788A169A10E94287C60
:10FD200029962EAC3FAC2997280E311C29968FAD11
:10FD30002997820D080F90C0113009F48BC0112350
:10FD400009F08AC09FEF89169FEF99069FEFA906D9
:10FD50009FEFB90619F44201AA24BB24210194E0C3
:10FD6000440C551C9A95E1F7480C591C20E0772467
:10FD70007394A101E02EC201140125015C015BC056
:10FD8000EEE1F0E0EC0FFD1FE00FF11FAFE1B0E09E
:10FD9000AC0FBD1FA00FB11F80816C9162962FAF79
:10FDA000629763964FAF639764965FAF64970E94C4
:10FDB000287C882EA0E2B0E0AC0FBD1FA00FB11FC1
:10FDC000E1E2F0E0EC0FFD1FE00FF11F8C9160818C
:10FDD0000E94287C982D980FE90E62962FAD6297AD
:10FDE00063964FAD639764965FAD6497E1E06E16DE
:10FDF00049F4E1E0F0E0EC0FFD1FEC0DFD1D808209
:10FE0000818314C0F601EA0DFB1D61968FAF6197E7
:10FE100060961FAE609761968EAD9FAD6197880D1D
:10FE2000911D0C0170925700E895112482E090E03A
:10FE3000C80ED91E2C5F022F10E02D96EEADFFAD3F
:10FE40002D970E171F070CF49BCF520141011A0189
:10FE50000E2D02C011E001C010E00F0D09F053C0DB
:10FE60008EE20E944E7CFFEFCF16D10409F010F411
:10FE7000812F01C081E091E0691619F0813009F00D
:10FE80003EC0A10160E070E084E0440F551F661F92
:10FE9000771F8A95D1F7480D591D6A1D7B1DE1E03A
:10FEA0006E1649F4F999FECFCE010196BA01A6016A
:10FEB0000E94917F1BC04030F8EF5F07F0E06F07B2
:10FEC000F0E07F0700F5FA0183E080935700E895A2
:10FED00007B600FCFDCF85E080935700E89507B694
:10FEE00000FCFDCF81E180935700E8958AE20E94F3
:10FEF0004E7CCC24DD2488248A94982C5401112330
:10FF000009F49ACE02C08DE201C08BE20E944E7CC1
:10FF1000BFCDF999FECF92BD81BDF89A992780B5E2
:10FF20000895DC01CB0103C02D910E949C7F4150BC
:10FF30005040D0F70895262FF999FECF1FBA92BDF1
:10FF400081BD20BD0FB6F894FA9AF99A0FBE0196BA
:02FF5000089512
:040000030000F80001
:00000001FF
