:020000021000EC
:10F8000012E0A0E0B2E0E4E4FFEF01E00BBF02C0D1
:10F8100007900D92A030B107D9F71BBE12E0A0E00F
:10F82000B2E001C01D92A230B107E1F7CFEFD1E203
:10F83000DEBFCDBF11241FBE83C0813610F08755B7
:10F840000895813410F087530895803310F0805369
:10F85000089580E008951F93CF93DF930F92CDB763
:10F86000DEB769830E941DFC182F6981862F0E94D4
:10F870001DFC1295107F810F0F90DF91CF911F918A
:10F88000089524E0969587952A95E1F79093C50011
:10F890008093C40088E18093C10086E08093C20019
:10F8A0000895CF93C82F8D3019F48AE00E9451FC3F
:10F8B0008091C00085FFFCCFC093C600CF91089512
:10F8C0008091C00087FFFCCF8091C60008958F70A3
:10F8D0008A3010F0895A01C0805D0E9451FC089561
:10F8E000CF93C82F82958F700E9467FC8C2F0E9447
:10F8F00067FCCF910895CF93DF93EC018D2F829514
:10F900008F700E9467FC8D2F0E9467FCCE0134E04F
:10F91000969587953A95E1F70E9467FC8C2F0E9497
:10F9200067FCDF91CF910895CF93DF93EC0102C084
:10F930000E9451FC89918823D9F7DF91CF910895D6
:10F94000CF93DF93CDB7DEB7C755D0400FB6F8944D
:10F95000DEBF0FBECDBFF8948EB183608EB910921A
:10F96000800081E08093810084B7877F84BF80918D
:10F97000600088618093600086E48093600031E1DC
:10F9800000E010E004C08091600087FD04C0609931
:10F99000FACF20E001C021E010928500109284008F
:10F9A00004C08091600087FD03C0609BFACF01C056
:10F9B00021E0313130F48091840090918500080F6E
:10F9C000191F315019F0222311F321E080916000BA
:10F9D000886180936000109260002130B9F4109229
:10F9E000810010928500109284008EB18C7F8EB9B8
:10F9F0001092C5001092C4001092C10086E080935E
:10FA0000C200E0910002F0910102099564E01695B0
:10FA100007956A95E1F78FE493EC0197F1F700C041
:10FA20000000C8010E9441FC0E9460FC0E9460FC32
:10FA30008535A9F60E9460FC853589F60E9460FC38
:10FA4000853569F683E60E9451FC84E30E9451FCEF
:10FA500085E30E9451FC82E60E9451FC82E30E94F1
:10FA600051FC80E20E9451FC86E70E9451FC82E337
:10FA70000E9451FC8EE20E9451FC89E30E9451FCDD
:10FA80008BE40E9451FC1D8A8DE00E9451FC8EE3A4
:10FA90000E9451FC81E10E9451FC10E00E9460FC38
:10FAA000E5E1F0E0EC0FFD1FE10FF11D80838535EE
:10FAB000A9F3833019F488E58D8B03C01F5F8A306A
:10FAC00069F7812F90E0FE01E80FF91F148AFC010D
:10FAD000329725E130E02C0F3D1FE20FF31F8081AC
:10FAE0008D3009F4108283E10E9451FCCE014596CD
:10FAF0000E9494FC9D89973661F0983620F49536E3
:10FB000009F0FAC12DC09D3659F1903709F0F4C1C2
:10FB10006BC08BE20E9451FC8DE00E9451FC81E1A0
:10FB20000E9451FC8FE493EC0197F1F700C00000B4
:10FB30001092810010928500109284008EB18C7F0B
:10FB40008EB91092C5001092C4001092C10086E0D8
:10FB50008093C200E0910002F0910102099594CFD8
:10FB60008F89688D68969FAF68970E942BFC182F2D
:10FB7000898D6A8D0E942BFC61961FAF61976096FC
:10FB80001FAE609761960EAD1FAD6197080F111DF6
:10FB90008E898737A9F48B8D6C8D0E942BFCE82E03
:10FBA00068969FAD6897953631F4F999FECFC801F4
:10FBB0006E2D0E9494FF8D898D3611F4F801E0823C
:10FBC0008D89853629F4C8010E9482FF182F02C052
:10FBD000F80110818BE20E9451FC8DE00E9451FCE3
:10FBE000812F0E9470FC50CF8BE20E9451FC8DE06F
:10FBF0000E9451FC222423948E89853609F0222408
:10FC000029961FAE1EAE2997CC24DD2444244A94A5
:10FC1000542C320181E10E9451FC10E00E9460FCF2
:10FC2000E5E1F0E0EC0FFD1FE10FF11D80831F5FA8
:10FC30008A30A1F783E10E9451FCE4E1F0E0EC0F8F
:10FC4000FD1FE10FF11D10828E896F890E942BFC30
:10FC5000E82E888D698D0E942BFC082F2D968FAF82
:10FC60002D972C961FAE2C978A8D6B8D0E942BFCA6
:10FC70002D968EAC9FAC2D97880E911C8C8D6D8D22
:10FC80000E942BFC182F0E0D080F080DEE2DF0E032
:10FC90009F01220F331F2F963FAF2EAF2F97AEE15C
:10FCA000B0E0AC0FBD1FA20FB31F3596EE0FFF1FC4
:10FCB00081E090E08C0F9D1FE80FF91F8C91648903
:10FCC0000E942BFCF82E1230F1F48E8D6F8D0E9465
:10FCD0002BFC2B968FAF2B972A961FAE2A9788A1C5
:10FCE00069A10E942BFC2B962EAD3FAD2B97280FC0
:10FCF000311D29963FAF2EAF29972B968FAD2B97AD
:10FD0000820F080F99C0113009F494C0112309F033
:10FD100093C03FEF43163FEF53063FEF63063FEFBD
:10FD2000730619F424016624772429968EAD9FADBD
:10FD3000299724E0880F991F2A95E1F74C01AA24FE
:10FD4000BB24840C951CA61CB71C20E033243394E0
:10FD500067964CAE5DAE6EAE7FAE67972601E02E25
:10FD600056C0EEE1F0E0EC0FFD1FE00FF11FAFE138
:10FD7000B0E0AC0FBD1FA00FB11F80816C916896E1
:10FD80002FAF68970E942BFCC82EA0E2B0E0AC0F0A
:10FD9000BD1FA00FB11FE1E2F0E0EC0FFD1FE00F6F
:10FDA000F11F8C9160810E942BFC9C2D980FE90E15
:10FDB00068962FAD689791E0291649F4E1E0F0E0EC
:10FDC000EC0FFD1FE40DF51DC08281831BC0A20155
:10FDD00060E070E0480D591D6A1D7B1D63968FAF72
:10FDE000639762961FAE629763968EAD9FAD6397E1
:10FDF0008C0D911D0C01FA0160935B00309257004D
:10FE0000E8951124E2E0F0E04E0E5F1E2C5F022F19
:10FE100010E02F968EAD9FAD2F97081719070CF4A1
:10FE2000A0CF620167964CAC5DAC6EAC7FAC6797BF
:10FE30000E2D02C011E001C010E00F0D09F05CC0F2
:10FE40008EE20E9451FC9FEFC916D10409F010F414
:10FE5000812F01C081E0E1E02E1619F0813009F018
:10FE600047C029962EAD3FAD2997A90160E070E00B
:10FE700084E0440F551F661F771F8A95D1F7440D04
:10FE8000551D661D771D31E0231649F4F999FECF03
:10FE9000CE010196BA01A6010E948AFF20C040301F
:10FEA00088EF580781E0680780E0780728F583E04D
:10FEB000FA0160935B0080935700E89507B600FC59
:10FEC000FDCF85E0FA0160935B0080935700E895D1
:10FED00007B600FCFDCF81E180935700E8958AE2E8
:10FEE0000E9451FCCC24DD2444244A94542C320139
:10FEF000112309F48FCE02C08DE201C08BE20E9473
:10FF000051FCC2CDF999FECF92BD81BDF89A9927D7
:10FF100080B50895DC01CB0103C02D910E9495FFAF
:10FF200041505040D0F70895262FF999FECF1FBABF
:10FF300092BD81BD20BD0FB6F894FA9AF99A0FBE12
:04FF40000196089589
:040000031000F800F1
:00000001FF
