:1078000010E0A0E6B0E0EEEDFEE702C005900D92BC
:10781000A036B107D9F710E0A0E6B0E001C01D9294
:10782000A236B107E1F7CFE5D8E0DEBFCDBF112426
:107830001FBE79C0813610F087550895813410F04D
:1078400087530895803310F08053089580E00895A1
:107850001F93CF93DF930F92CDB7DEB769830E945A
:107860001A3C182F6981862F0E941A3C1295107FAE
:10787000810F0F90DF91CF911F91089524E096958D
:1078800087952A95E1F790BD89B988E18AB986E89C
:1078900080BD0895CF93C82F8D3019F48AE00E94DF
:1078A0004A3C5D9BFECFCCB9CF9108955F9BFECF44
:1078B0008CB108958F708A3010F0895A01C0805DB4
:1078C0000E944A3C0895CF93C82F82958F700E94E2
:1078D0005A3C8C2F0E945A3CCF910895CF93DF934E
:1078E000EC018D2F82958F700E945A3C8D2F0E9443
:1078F0005A3CCE0134E0969587953A95E1F70E947F
:107900005A3C8C2F0E945A3CDF91CF910895CF931F
:10791000DF93EC0102C00E944A3C89918823D9F789
:10792000DF91CF910895CF93DF93CDB7DEB7C355E5
:10793000D0400FB6F894DEBF0FBECDBFF89482B32F
:10794000836082BB1FBC81E08EBD84B7877F84BF0C
:1079500081B5886181BD11BC40E050E0BA0131E1E0
:1079600000E010E00CC04F5F5F4F6F4F7F4F413022
:107970008AE6580788E1680780E0780720F4809954
:10798000F2CF20E001C021E01DBC1CBC0CC04F5F49
:107990005F4F6F4F7F4F41309AE6590798E1690773
:1079A00090E0790718F4809BF2CF01C021E03131DB
:1079B00020F48CB59DB5080F191F315019F0222302
:1079C000F1F202C0213081F41EBC1DBC1CBC82B38C
:1079D0008C7F82BB10BC19B81AB886E880BDE091D4
:1079E0006000F0916100099544E0169507954A956D
:1079F000E1F7EFE4F3EC3197F1F700C00000C801C4
:107A00000E943E3C0E94563C0E94563C8535E1F661
:107A10000E94563C8535C1F60E94563C8535A1F63C
:107A200083E60E944A3C84E30E944A3C85E30E942C
:107A30004A3C82E60E944A3C82E30E944A3C80E241
:107A40000E944A3C86E70E944A3C82E30E944A3CEC
:107A50008EE20E944A3C89E30E944A3C8BE40E94E9
:107A60004A3C1D8A8DE00E944A3C8EE30E944A3CBB
:107A700081E10E944A3C10E00E94563CE5E1F0E0C2
:107A8000EC0FFD1FE10FF11D80838535A9F38330D5
:107A900019F488E58D8B03C01F5F8A3069F7812F49
:107AA00090E0FE01E80FF91F148AFC01329785E18E
:107AB00090E08C0F9D1FE80FF91F80818D3009F435
:107AC000108283E10E944A3CCE0145960E94873C89
:107AD0009D89973661F0983620F4953609F0DAC121
:107AE00026C09D3621F1903709F0D4C164C08BE2E5
:107AF0000E944A3C8DE00E944A3C81E10E944A3C3F
:107B0000EFE4F3EC3197F1F700C000001EBC1DBCA0
:107B10001CBC82B38C7F82BB10BC19B81AB886E833
:107B200080BDE0916000F091610009959BCF8F8945
:107B3000688D62969FAF62970E94283C182F898DAE
:107B40006A8D0E94283C2F961FAF2F972E961FAE4E
:107B50002E972F960EAD1FAD2F97080F111D8E89F2
:107B60008737A9F48B8D6C8D0E94283CE82E629695
:107B70009FAD6297953631F4E199FECFC8016E2D25
:107B80000E94623F8D898D3611F4F801E0828D8963
:107B9000853629F4C8010E94503F182F02C0F80111
:107BA00010818BE20E944A3C8DE00E944A3C812F6A
:107BB0000E94633C57CF8BE20E944A3C8DE00E94BA
:107BC0004A3C662463948E89853609F06624222413
:107BD0003324CC24DD2488248A94982C540181E118
:107BE0000E944A3C10E00E94563CE5E1F0E0EC0FB8
:107BF000FD1FE10FF11D80831F5F8A30A1F783E134
:107C00000E944A3CE4E1F0E0EC0FFD1FE10FF11DA2
:107C100010828E896F890E94283CE82E888D698D9C
:107C20000E94283C082F2B968FAF2B972A961FAEC9
:107C30002A978A8D6B8D0E94283C2B964EAC5FACA8
:107C40002B97480E511C8C8D6D8D0E94283C182F4F
:107C50000E0D080F040DEE2DF0E0CF01880F991FD7
:107C60002D969FAF8EAF2D97AEE1B0E0AC0FBD1F4C
:107C7000A80FB91F3596EE0FFF1F81E090E08C0F23
:107C80009D1FE80FF91F8C9164890E94283CF82EF3
:107C90001230D1F48E8D6F8D0E94283C29968FAFC3
:107CA000299728961FAE289788A169A10E94283C91
:107CB00029962EAC3FAC2997280E311C29968FAD02
:107CC0002997820D080F90C0113009F48BC0112341
:107CD00009F08AC09FEF89169FEF99069FEFA906CA
:107CE0009FEFB90619F44201AA24BB24210194E0B4
:107CF000440C551C9A95E1F7480C591C20E0772458
:107D00007394A101E02EC201140125015C015BC046
:107D1000EEE1F0E0EC0FFD1FE00FF11FAFE1B0E08E
:107D2000AC0FBD1FA00FB11F80816C9162962FAF69
:107D3000629763964FAF639764965FAF64970E94B4
:107D4000283C882EA0E2B0E0AC0FBD1FA00FB11FF1
:107D5000E1E2F0E0EC0FFD1FE00FF11F8C9160817C
:107D60000E94283C982D980FE90E62962FAD6297DD
:107D700063964FAD639764965FAD6497E1E06E16CE
:107D800049F4E1E0F0E0EC0FFD1FEC0DFD1D8082F9
:107D9000818314C0F601EA0DFB1D61968FAF6197D8
:107DA00060961FAE609761968EAD9FAD6197880D0E
:107DB000911D0C0170925700E895112482E090E02B
:107DC000C80ED91E2C5F022F10E02D96EEADFFAD30
:107DD0002D970E171F070CF49BCF520141011A017A
:107DE0000E2D02C011E001C010E00F0D09F052C0CD
:107DF0008EE20E944A3CF0E8CF16D10410F4812FA5
:107E000001C081E091E0691619F0813009F03EC0AF
:107E1000A10160E070E084E0440F551F661F771FEA
:107E20008A95D1F7480D591D6A1D7B1DE1E06E163C
:107E300049F4E199FECFCE010196BA01A6010E9454
:107E4000583F1BC04030F8E75F07F0E06F07F0E0F5
:107E50007F0700F5FA0183E080935700E89507B6A5
:107E600000FCFDCF85E080935700E89507B600FC45
:107E7000FDCF81E180935700E8958AE20E944A3C59
:107E8000CC24DD2488248A94982C5401112309F4ED
:107E9000A6CE02C08DE201C08BE20E944A3CE2CD38
:107EA000E199FECF9FBB8EBBE09A99278DB30895D1
:107EB000DC01CB0103C02D910E94633F4150504033
:107EC000D0F70895262FE199FECF9FBB8EBB2DBB27
:0E7ED0000FB6F894E29AE19A0FBE019608955B
:040000030000780081
:00000001FF
