:020000021000EC
:100000000C94FA800C941E810C941E810C941E8119
:100010000C941E810C941E810C941E810C941E81E4
:100020000C941E810C941E810C941E810C941E81D4
:100030000C941E810C941E810C941E810C941E81C4
:100040000C941E810C941E810C941E810C941E81B4
:100050000C941E810C941E810C941E810C941E81A4
:100060000C941E810C941E810C941E810C941E8194
:100070000C941E810C941E810C941E810C941E8184
:100080000C941E810C941E810C941E810C941E8174
:100090000C941E810C941E810C941E810C941E8164
:1000A0000C941E810C941E810C941E810C941E8154
:1000B0000C941E810C941E810C941E810C941E8144
:1000C0000C941E810C941E810C941E810C941E8134
:1000D0000C941E810C941E810C941E810C941E8124
:1000E0000C941E810C941E810C941E810C941E8114
:1000F0000C941E810C941E810C941E810C941E8104
:100100000C941E810C941E810C941E810C941E81F3
:100110000C941E810C941E810C941E810C941E81E3
:100120000C941E810C941E810C941E810C941E81D3
:100130000C941E810C941E810C941E810C941E81C3
:100140000C941E810C941E810C941E810C941E81B3
:100150000C941E810C941E810C941E810C941E81A3
:100160000C941E810C941E810C941E810C941E8193
:100170000C941E810C941E810C941E810C941E8183
:100180000C941E810C941E810C941E810C941E8173
:100190000C941E810C941E810C941E810C941E8163
:1001A0000C941E810C941E810C941E810C941E8153
:1001B0000C941E810C941E810C941E810C941E8143
:1001C0000C941E810C941E810C941E810C941E8133
:1001D0000C941E810C941E810C941E810C941E8123
:1001E0000C941E810C941E810C941E810C941E8113
:1001F0000C941E8111241FBECFEFDFE2DEBFCDBF06
:1002000018BE19BE1ABE1BBE10E2A0E0B0E2EAE5BD
:10021000FCE001E00BBF02C007900D92A030B107D7
:10022000D9F71BBE10E2A0E0B0E201C01D92A230DF
:10023000B107E1F70E945F820C942B860C9400803A
:10024000813610F087550895813410F08753089552
:10025000803310F08053089580E008951F93CF936A
:10026000DF930F92CDB7DEB769830E942081182FEC
:100270006981862F0E9420811295107F810F0F9037
:10028000DF91CF911F91089520EA36E841E050E0D8
:100290000E94AD85DC01CB01E3E0B695A79597956B
:1002A0008795EA95D1F7805A9648A140B040BC01A5
:1002B000CD012AE638E140E050E00E94CC85E0EB39
:1002C000FBE02683306C378313828581887F8360CF
:1002D00085838CE184830895CF93C82F8D3019F4E2
:1002E0008AE00E946C818091B10B85FFFCCFC093A6
:1002F000B00BCF9108958091B10B87FFFCCF809117
:10030000B00B08958F708A3010F0895A01C0805D5B
:100310000E946C810895CF93C82F82958F700E94A0
:1003200082818C2F0E948281CF910895CF93DF9399
:10033000EC018D2F82958F700E9482818D2F0E94FB
:100340008281CE01F4E096958795FA95E1F70E94B7
:1003500082818C2F0E948281DF91CF910895CF936B
:10036000DF93EC0102C00E946C8189918823D9F748
:10037000DF91CF9108950E94FD8108950E94F78139
:1003800008950E94428208950E941582089508955A
:100390003BB78BBFFB0186913BBF08953BB78BBF3B
:1003A000FB01879196913BBF089542E083C041E0F5
:1003B00081C08093C00188278093C1018093C201CE
:1003C00047E068D0CB0108958093C40148E062C043
:1003D0008091D00108953BB748E10C9440863BB72B
:1003E0004AE10C9440863BB740E20C9440863BB710
:1003F0008BBFCB0142E20C9440863BB78BBFCB0155
:100400000A0143E20C9440863BB76BBFFA0119BE68
:10041000DC0140E04093CA0150E0879197918D93B1
:100420009D935A95D1F73BBF08953BB78BBFCB0146
:1004300044E20C9440863BB78BBFCB0145E20C9461
:1004400040863BB746E20C9440863BB78BBFCB015E
:100450004AE20C9440863BB78BBFCB014CE20C9434
:1004600040863BB78BBFCB014DE20C94408648E3FE
:1004700011C049E30FC028ED2093340021E0209300
:10048000CC0108952091CF0127FDFCCF2227209396
:10049000CA0108954093CA0128ED31E02093340049
:1004A0003093CB016091C4017091C5018091C60168
:1004B00099270895FC014093CA0184910895CF9330
:1004C000DF93CDB7DEB7C555D040CDBFDEBFF894C2
:1004D000E0E5F0E0128285E08093500088E08583BB
:1004E000809150008061809350008091510084FF82
:1004F000FCCF88ED84BF94E090934000E0EAF6E002
:1005000098E1968B978B90E89093A10690E2909358
:10051000A1069093A606E0E0F8E091E09093000831
:10052000118212821382148225E0E0E4F0E023833A
:10053000E0E0F4E028EB3BE024873587909300046B
:100540001086118684BF9093800031E1CC24DD2495
:100550007601E0E0F8E004C08091030481FD06C06C
:100560008091A80686FDF8CF20E001C021E010A20E
:1005700011A204C08091030481FD05C08091A806EA
:1005800086FFF8CF01C021E0313150F4809120087E
:1005900090912108A0E0B0E0C80ED91EEA1EFB1E13
:1005A000315021F02223E1F221E002C0213029F56F
:1005B000E0E0F8E010920008118210A211A2E0EA37
:1005C000F6E0168A178AE0EBFBE01382148283E0E0
:1005D000858316821782109200041CBE88ED84BFAA
:1005E00010924000000020935000E0E5F0E01582FA
:1005F000E0910020F0910120099564E0F694E794E1
:10060000D794C7946A95D1F78FE493EC0197F1F7EB
:1006100000C00000C701B6010E9444810E947B8196
:100620000E947B81853509F0BFCF0E947B81853593
:1006300009F0BACF0E947B81853509F0B5CF0E94C1
:100640007B818535E1F380E28093A50683E60E94F5
:100650006C8184E30E946C8185E30E946C8182E658
:100660000E946C8182E30E946C8180E20E946C8116
:1006700086E70E946C8182E30E946C818EE20E9478
:100680006C8189E30E946C818BE40E946C811D8ADD
:1006900080E28093A5068DE00E946C818EE30E942B
:1006A0006C8181E10E946C818091B10B8064E0EBF0
:1006B000FBE081838091B10B86FFFCCF80E28093C9
:1006C000A60610E00E947B81E5E1F0E0EC0FFD1F43
:1006D000E10FF11D80838535A9F3833019F488E596
:1006E0008D8B03C01F5F8A3069F7812F90E0E4E1B2
:1006F000F0E0EC0FFD1FE80FF91F1082FC013297AC
:1007000025E130E02C0F3D1FE20FF31F80818D307B
:1007100009F4108210E21093A50683E10E946C8117
:10072000CE0145960E94AF819D89973661F098363B
:1007300020F4953609F00BC23EC09D36E1F19037AA
:1007400009F005C27EC08BE20E946C818DE00E94A0
:100750006C8181E10E946C818FE493EC0197F1F749
:1007600000C00000E0E0F8E010920008118210A242
:1007700011A21093A606E0EAF6E0168A178AE0EBCB
:10078000FBE01382148283E0858316821782109225
:1007900000041CBE88ED84BF10924000000081E080
:1007A00080935000E0E5F0E01582E0910020F091A8
:1007B000012009956DCF8F89688D66969FAF6697EA
:1007C0000E942E81182F898D6A8D0E942E8162963B
:1007D0001FAF629761961FAE619762960EAD1FAD17
:1007E0006297080F111D8E898737B9F48B8D6C8D38
:1007F0000E942E81F82E66969FAD6697953641F43D
:100800008091CF0187FDFCCFC8016F2D0E94088623
:100810008D898D3611F4F801F0828D89853629F4A1
:10082000C8010E94EE85182F02C0F80110818BE2EA
:100830000E946C818DE00E946C81812F0E948B81CF
:1008400027CF8BE20E946C818DE00E946C8121E0B9
:100850002A962FAF2A978E89853619F02A961FAED1
:100860002A9729961EAE1FAE2997222433244424AA
:100870004A94542C320181E10E946C818091B10B29
:100880008064E0EBFBE081838091B10B86FFFCCFBD
:1008900080E28093A60610E00E947B81E5E1F0E013
:1008A000EC0FFD1FE10FF11D80831F5F8A30A1F760
:1008B00080E28093A50683E10E946C81E4E1F0E090
:1008C000EC0FFD1FE10FF11D10828E896F890E94D0
:1008D0002E81F82E888D698D0E942E81082F2E96EC
:1008E0008FAF2E972D961FAE2D978A8D6B8D0E9400
:1008F0002E812E96CEACDFAC2E97C80ED11C8C8DDF
:100900006D8D0E942E81182F0F0D080F0C0DEF2DED
:10091000F0E09F01220F331F60962EAF3FAF60972C
:10092000AEE1B0E0AC0FBD1FA20FB31F3596EE0FC6
:10093000FF1F81E090E08C0F9D1FE80FF91F8C9145
:1009400064890E942E8165968FAF65971230F1F40D
:100950008E8D6F8D0E942E812C968FAF2C972B96AB
:100960001FAE2B9788A169A10E942E812C962EADD7
:100970003FAD2C97280F311D29962EAF3FAF2997F9
:100980002C968FAD2C97820F080F81C0113009F47F
:100990007CC0112309F07BC03FEF43163FEF5306A5
:1009A0003FEF63063FEF730619F4260166247724B0
:1009B00029968EAD9FAD299724E0880F991F2A951F
:1009C000E1F74C01AA24BB24840C951CA61CB71C7F
:1009D000DD24F02E4EC0EEE1F0E0EC0FFD1FE00F45
:1009E000F11FAFE1B0E0AC0FBD1FA00FB11F8081C0
:1009F0006C910E942E81E82EA0E2B0E0AC0FBD1FEA
:100A0000A00FB11FE1E2F0E0EC0FFD1FE00FF11FBE
:100A10008C9160810E942E81282F8E2D820FF80EDE
:100A20002A963FAD2A97313049F4E1E0F0E0EC0F2F
:100A3000FD1FE20DF31DE082218315C0B10180E0AE
:100A400090E0680D791D8A1D9B1D64962FAF6497F9
:100A500063961FAE639764964EAD5FAD64974E0D7F
:100A6000511D0E94BB8182E090E0280E391E94E067
:100A7000D90E0D2D10E060962EAD3FAD6097021798
:100A800013070CF4A8CF0F2D02C011E001C010E035
:100A900065963FAD6597030F09F059C08EE20E943D
:100AA0006C818FEF2816310409F010F4812F01C0FA
:100AB00081E02A962FAD2A97213019F0813009F074
:100AC00042C029962EAD3FAD29976901EE24FF243F
:100AD00084E0CC0CDD1CEE1CFF1C8A95D1F7C40C05
:100AE000D51CE61CF71C2A963FAD2A97313059F4E5
:100AF0008091CF0187FDFCCFCE010196B601A10107
:100B00000E94FE8517C080E0C81680E0D80681E00C
:100B1000E80680E0F806D8F4C701B6010E94BE815D
:100B20000E94C181C701B6010E94C4810E94C18197
:100B30000E94C7818AE20E946C81222433244424CB
:100B40004A94542C3201112309F495CE02C08DE24F
:100B500001C08BE20E946C819BCD629FD001739F8C
:100B6000F001829FE00DF11D649FE00DF11D929F49
:100B7000F00D839FF00D749FF00D659FF00D992788
:100B8000729FB00DE11DF91F639FB00DE11DF91FAC
:100B9000BD01CF0111240895A1E21A2EAA1BBB1B8F
:100BA000FD010DC0AA1FBB1FEE1FFF1FA217B30739
:100BB000E407F50720F0A21BB30BE40BF50B661F4F
:100BC000771F881F991F1A9469F760957095809513
:100BD00090959B01AC01BD01CF01089503D08081A8
:100BE00099270895E0ECF1E0378537FDFDCF348596
:100BF00038603487FC01E050F04F0895DC01CB01F0
:100C000003C02D910E94098641505040D0F70895AD
:100C1000262FE0ECF1E0378537FDFDCF3485377FB7
:100C20003487378531FF09C036E3328738ED34BF6A
:100C300031E03387378537FDFDCF33E3328780835B
:100C400091831282248325E3228728ED31E024BF9B
:0A0C5000338701960895F894FFCF52
:100C5A00EE27FF2719BEDC0143E24093CA0150E8A0
:100C6A002DE90D901D9020933400E89532965A95FF
:100C7A00C1F711240895FC014093CA012DE920937C
:100C8A003400E89511243BBF0895FC014093CA0142
:100C9A004F935F936F9364E06093A2004CE051E03E
:100CAA00509348000DE900933400E8954093CD0134
:0E0CBA00889511243BBF6F915F914F91089573
:0400000310000000E9
:00000001FF
