:10F8000011E0A0E0B1E0E0EFFEEF02C005900D9244
:10F81000A030B107D9F711E0A0E0B1E001C01D921E
:10F82000A230B107E1F7CFEFD0E1DEBFCDBF1124A9
:10F830001FBE7BC0813610F087550895813410F0CB
:10F8400087530895803310F08053089580E0089521
:10F850001F93CF93DF930F92CDB7DEB769830E94DA
:10F860001A7C182F6981862F0E941A7C1295107FAE
:10F87000810F0F90DF91CF911F91089524E096950D
:10F8800087952A95E1F79093900089B988E18AB924
:10F8900086E0809395000895CF93C82F8D3019F49A
:10F8A0008AE00E944C7C5D9BFECFCCB9CF9108953D
:10F8B0005F9BFECF8CB108958F708A3010F0895A0B
:10F8C00001C0805D0E944C7C0895CF93C82F829523
:10F8D0008F700E945C7C8C2F0E945C7CCF9108957D
:10F8E000CF93DF93EC018D2F82958F700E945C7C0B
:10F8F0008D2F0E945C7CCE0134E0969587953A95D9
:10F90000E1F70E945C7C8C2F0E945C7CDF91CF91A0
:10F910000895CF93DF93EC0102C00E944C7C899143
:10F920008823D9F7DF91CF910895CF93DF93CDB797
:10F93000DEB7C355D0400FB6F894DEBF0FBECDBFC3
:10F94000F89483B1836083B91FBC81E08EBD84B716
:10F95000877F84BF81B5886181BD11BC40E050E0E4
:10F96000BA0131E100E010E00CC04F5F5F4F6F4F14
:10F970007F4F41308AE6580788E1680780E07807C2
:10F9800020F40899F2CF20E001C021E01DBC1CBC8E
:10F990000CC04F5F5F4F6F4F7F4F41309AE6590762
:10F9A00098E1690790E0790718F4089BF2CF01C04D
:10F9B00021E0313120F48CB59DB5080F191F31506D
:10F9C00019F02223F1F202C0213091F41EBC1DBCBB
:10F9D0001CBC83B18C7F83B91092900019B81AB8FF
:10F9E00086E080939500E0910001F0910101099576
:10F9F00044E0169507954A95E1F7EFE4F3EC31976B
:10FA0000F1F700C00000C8010E943E7C0E94587CB3
:10FA10000E94587C8535D1F60E94587C8535B1F618
:10FA20000E94587C853591F683E60E944C7C84E3E5
:10FA30000E944C7C85E30E944C7C82E60E944C7CB8
:10FA400082E30E944C7C80E20E944C7C86E70E940C
:10FA50004C7C82E30E944C7C8EE20E944C7C89E3C9
:10FA60000E944C7C8BE40E944C7C1D8A8DE00E949D
:10FA70004C7C8EE30E944C7C81E10E944C7C10E027
:10FA80000E94587CE5E1F0E0EC0FFD1FE10FF11D55
:10FA900080838535A9F3833019F488E58D8B03C005
:10FAA0001F5F8A3069F7812F90E0FE01E80FF91F90
:10FAB000148AFC01329785E190E08C0F9D1FE80FBE
:10FAC000F91F80818D3009F4108283E10E944C7C03
:10FAD000CE0145960E94897C9D89973661F09836C3
:10FAE00020F4953609F0DFC128C09D3631F19037FA
:10FAF00009F0D9C166C08BE20E944C7C8DE00E9467
:10FB00004C7C81E10E944C7CEFE4F3EC3197F1F7FF
:10FB100000C000001EBC1DBC1CBC83B18C7F83B91F
:10FB20001092900019B81AB886E080939500E09181
:10FB30000001F0910101099599CF8F89688D629636
:10FB40009FAF62970E94287C182F898D6A8D0E9432
:10FB5000287C2F961FAF2F972E961FAE2E972F968D
:10FB60000EAD1FAD2F97080F111D8E898737A9F491
:10FB70008B8D6C8D0E94287CE82E62969FAD6297DB
:10FB8000953631F4E199FECFC8016E2D0E946B7F4E
:10FB90008D898D3611F4F801E0828D89853629F43E
:10FBA000C8010E94597F182F02C0F80110818BE212
:10FBB0000E944C7C8DE00E944C7C812F0E94657CD1
:10FBC00055CF8BE20E944C7C8DE00E944C7C6624D9
:10FBD00063948E89853609F0662422243324CC244C
:10FBE000DD2488248A94982C540181E10E944C7C65
:10FBF00010E00E94587CE5E1F0E0EC0FFD1FE10F02
:10FC0000F11D80831F5F8A30A1F783E10E944C7C45
:10FC1000E4E1F0E0EC0FFD1FE10FF11D10828E8991
:10FC20006F890E94287CE82E888D698D0E94287C2F
:10FC3000082F2B968FAF2B972A961FAE2A978A8D67
:10FC40006B8D0E94287C2B964EAC5FAC2B97480E98
:10FC5000511C8C8D6D8D0E94287C182F0E0D080F65
:10FC6000040DEE2DF0E0CF01880F991F2D969FAF68
:10FC70008EAF2D97AEE1B0E0AC0FBD1FA80FB91F3E
:10FC80003596EE0FFF1F81E090E08C0F9D1FE80F6F
:10FC9000F91F8C9164890E94287CF82E1230D1F4CF
:10FCA0008E8D6F8D0E94287C29968FAF299728967C
:10FCB0001FAE289788A169A10E94287C29962EACA6
:10FCC0003FAC2997280E311C29968FAD2997820DBC
:10FCD000080F90C0113009F48BC0112309F08AC0BD
:10FCE0009FEF89169FEF99069FEFA9069FEFB90630
:10FCF00019F44201AA24BB24210194E0440C551CB0
:10FD00009A95E1F7480C591C20E077247394A101DF
:10FD1000E02EC201140125015C015BC0EEE1F0E0C0
:10FD2000EC0FFD1FE00FF11FAFE1B0E0AC0FBD1F06
:10FD3000A00FB11F80816C9162962FAF629763967E
:10FD40004FAF639764965FAF64970E94287C882EBC
:10FD5000A0E2B0E0AC0FBD1FA00FB11FE1E2F0E0E8
:10FD6000EC0FFD1FE00FF11F8C9160810E94287C39
:10FD7000982D980FE90E62962FAD629763964FAD5E
:10FD8000639764965FAD6497E1E06E1649F4E1E035
:10FD9000F0E0EC0FFD1FEC0DFD1D8082818314C08F
:10FDA000F601EA0DFB1D61968FAF619760961FAE5D
:10FDB000609761968EAD9FAD6197880D911D0C0186
:10FDC00070926800E895112482E090E0C80ED91E78
:10FDD0002C5F022F10E02D96EEADFFAD2D970E1784
:10FDE0001F070CF49BCF520141011A010E2D02C0D6
:10FDF00011E001C010E00F0D09F055C08EE20E9425
:10FE00004C7CFFEFCF16D10409F010F4812F01C014
:10FE100081E091E0691619F0813009F040C0A1013C
:10FE200060E070E084E0440F551F661F771F8A95DD
:10FE3000D1F7480D591D6A1D7B1DE1E06E1649F48E
:10FE4000E199FECFCE010196BA01A6010E94617F21
:10FE50001DC04030F8EF5F07F0E06F07F0E07F076C
:10FE600010F5FA0183E080936800E89580916800BE
:10FE700080FDFCCF85E080936800E8958091680064
:10FE800080FDFCCF81E180936800E8958AE20E94C2
:10FE90004C7CCC24DD2488248A94982C5401112392
:10FEA00009F4A3CE02C08DE201C08BE20E944C7C1B
:10FEB000DDCDE199FECF9FBB8EBBE09A99278DB334
:10FEC0000895DC01CB0103C02D910E946C7F41504D
:10FED0005040D0F70895262FE199FECF9FBB8EBBEF
:10FEE0002DBB0FB6F894E29AE19A0FBE01960895E1
:040000030000F80001
:00000001FF
