:020000021000EC
:10F8000011E0A0E0B1E0E2E5FFEF01E00BBF02C0D4
:10F8100007900D92A030B107D9F71BBE11E0A0E010
:10F82000B1E001C01D92A230B107E1F7CFEFD0E106
:10F83000DEBFCDBF11241FBE7BC0813610F08755BF
:10F840000895813410F087530895803310F0805369
:10F85000089580E008951F93CF93DF930F92CDB763
:10F86000DEB769830E941DFC182F6981862F0E94D4
:10F870001DFC1295107F810F0F90DF91CF911F918A
:10F88000089524E0969587952A95E1F79093900046
:10F8900089B988E18AB986E0809395000895CF936D
:10F8A000C82F8D3019F48AE00E944FFC5D9BFECF7B
:10F8B000CCB9CF9108955F9BFECF8CB108958F7026
:10F8C0008A3010F0895A01C0805D0E944FFC089573
:10F8D000CF93C82F82958F700E945FFC8C2F0E945F
:10F8E0005FFCCF910895CF93DF93EC018D2F82952C
:10F8F0008F700E945FFC8D2F0E945FFCCE0134E070
:10F90000969587953A95E1F70E945FFC8C2F0E94AF
:10F910005FFCDF91CF910895CF93DF93EC0102C09C
:10F920000E944FFC89918823D9F7DF91CF910895E8
:10F93000CF93DF93CDB7DEB7C755D0400FB6F8945D
:10F94000DEBF0FBECDBFF89483B1836083B9129A36
:10F950001A981FBC81E08EBD84B7877F84BF81B5B4
:10F96000886181BD11BC40E050E0BA0131E100E0A6
:10F9700010E00CC04F5F5F4F6F4F7F4F41302AE662
:10F98000520728E1620720E0720720F40899F2CFBD
:10F9900020E001C021E01DBC1CBC0CC04F5F5F4FCC
:10F9A0006F4F7F4F41308AE6580788E1680780E053
:10F9B000780718F4089BF2CF01C021E0313120F420
:10F9C0008CB59DB5080F191F315019F02223F1F2A3
:10F9D00002C0213091F41EBC1DBC1CBC83B18C7FC5
:10F9E00083B91092900019B81AB886E080939500F8
:10F9F000E0910001F0910101099564E016950795E9
:10FA00006A95E1F7EFE4F3EC3197F1F700C00000FD
:10FA1000C8010E9441FC0E945BFC0E945BFC853592
:10FA2000D1F60E945BFC8535B1F60E945BFC853502
:10FA300091F60E945BFC8535E1F31A9A83E60E94F9
:10FA40004FFC84E30E944FFC85E30E944FFC82E65A
:10FA50000E944FFC82E30E944FFC80E20E944FFC18
:10FA600086E70E944FFC82E30E944FFC8EE20E94D8
:10FA70004FFC89E30E944FFC8BE40E944FFC1D8ADF
:10FA80001A9A8DE00E944FFC8EE30E944FFC81E1A8
:10FA90000E944FFC5E9A5E9BFECF1A9810E00E9477
:10FAA0005BFCE5E1F0E0EC0FFD1FE10FF11D808351
:10FAB0008535A9F3833019F488E58D8B03C01F5F6A
:10FAC0008A3069F7812F90E0E4E1F0E0EC0FFD1F50
:10FAD000E80FF91F1082FC01329725E130E02C0F6E
:10FAE0003D1FE20FF31F80818D3009F410821A9AB6
:10FAF00083E10E944FFCCE0145960E948CFC9D89BB
:10FB0000973661F0983620F4953609F0FDC129C08A
:10FB10009D3639F1903709F0F7C167C08BE20E943A
:10FB20004FFC8DE00E944FFC81E10E944FFC8FE46E
:10FB300093EC0197F1F700C000001EBC1DBC1CBC7B
:10FB40001A9883B18C7F83B91092900019B81AB8B3
:10FB500086E080939500E0910001F0910101099504
:10FB60008FCF8F89688D68969FAF68970E942BFC16
:10FB7000182F898D6A8D0E942BFC61961FAF6197AB
:10FB800060961FAE609761960EAD1FAD6197080F2E
:10FB9000111D8E898737A9F48B8D6C8D0E942BFCEB
:10FBA000E82E68969FAD6897953631F4E199FECFBF
:10FBB000C8016E2D0E949CFF8D898D3611F4F801CD
:10FBC000E0828D89853629F4C8010E948AFF182FAA
:10FBD00002C0F80110818BE20E944FFC8DE00E9470
:10FBE0004FFC812F0E9468FC4BCF8BE20E944FFCA0
:10FBF0008DE00E944FFC222423948E89853609F0E3
:10FC0000222429961FAE1EAE2997CC24DD2444243D
:10FC10004A94542C320181E10E944FFC5E9A5E9B13
:10FC2000FECF1A9810E00E945BFCE5E1F0E0EC0FDB
:10FC3000FD1FE10FF11D80831F5F8A30A1F71A9A23
:10FC400083E10E944FFCE4E1F0E0EC0FFD1FE10FC7
:10FC5000F11D10828E896F890E942BFCE82E888D01
:10FC6000698D0E942BFC082F2D968FAF2D972C9617
:10FC70001FAE2C978A8D6B8D0E942BFC2D968EAC1F
:10FC80009FAC2D97880E911C8C8D6D8D0E942BFC46
:10FC9000182F0E0D080F080DEE2DF0E09F01220F1A
:10FCA000331F2F963FAF2EAF2F97AEE1B0E0AC0FD2
:10FCB000BD1FA20FB31F3596EE0FFF1F81E090E02E
:10FCC0008C0F9D1FE80FF91F8C9164890E942BFCFB
:10FCD000F82E1230F1F48E8D6F8D0E942BFC2B9636
:10FCE0008FAF2B972A961FAE2A9788A169A10E94F1
:10FCF0002BFC2B962EAD3FAD2B97280F311D29964F
:10FD00003FAF2EAF29972B968FAD2B97820F080F01
:10FD100099C0113009F494C0112309F093C03FEF4A
:10FD200043163FEF53063FEF63063FEF730619F4A8
:10FD300024016624772429968EAD9FAD299724E06F
:10FD4000880F991F2A95E1F74C01AA24BB24840C43
:10FD5000951CA61CB71C20E03324339467964CAE48
:10FD60005DAE6EAE7FAE67972601E02E56C0EEE127
:10FD7000F0E0EC0FFD1FE00FF11FAFE1B0E0AC0FC2
:10FD8000BD1FA00FB11F80816C9168962FAF68973F
:10FD90000E942BFCC82EA0E2B0E0AC0FBD1FA00F4C
:10FDA000B11FE1E2F0E0EC0FFD1FE00FF11F8C91BD
:10FDB00060810E942BFC9C2D980FE90E68962FAD58
:10FDC000689791E0291649F4E1E0F0E0EC0FFD1F9F
:10FDD000E40DF51DC08281831BC0A20160E070E0CC
:10FDE000480D591D6A1D7B1D63968FAF6397629600
:10FDF0001FAE629763968EAD9FAD63978C0D911D7C
:10FE00000C01FA0160935B0030926800E8951124C0
:10FE1000E2E0F0E04E0E5F1E2C5F022F10E02F9606
:10FE20008EAD9FAD2F97081719070CF4A0CF620174
:10FE300067964CAC5DAC6EAC7FAC67970E2D02C084
:10FE400011E001C010E00F0D09F05EC08EE20E94CB
:10FE50004FFC9FEFC916D10409F010F4812F01C0A7
:10FE600081E0E1E02E1619F0813009F049C02996B1
:10FE70002EAD3FAD2997A90160E070E084E0440F0A
:10FE8000551F661F771F8A95D1F7440D551D661DB6
:10FE9000771D31E0231649F4E199FECFCE0101969A
:10FEA000BA01A6010E9492FF22C0403088EF580795
:10FEB00081E0680780E0780738F583E0FA01609315
:10FEC0005B0080936800E8958091680080FDFCCF1E
:10FED00085E0FA0160935B0080936800E89580916B
:10FEE000680080FDFCCF81E180936800E8958AE29C
:10FEF0000E944FFCCC24DD2444244A94542C32012B
:10FF0000112309F488CE02C08DE201C08BE20E9469
:10FF10004FFCB6CDE199FECF9FBB8EBBE09A9927EF
:10FF20008DB30895DC01CB0103C02D910E949DFF8C
:10FF300041505040D0F70895262FE199FECF9FBB46
:10FF40008EBB2DBB0FB6F894E29AE19A0FBE0196D4
:02FF5000089512
:040000031000F800F1
:00000001FF
