:020000022000DC
:100000000D94E4000D9406010D9406010D94060173
:100010000D9406010D9406010D9406010D94060140
:100020000D9406010D9406010D9406010D94060130
:100030000D9406010D9406010D9406010D94060120
:100040000D9406010D9406010D9406010D94060110
:100050000D9406010D9406010D9406010D94060100
:100060000D9406010D9406010D9406010D940601F0
:100070000D9406010D9406010D9406010D940601E0
:100080000D9406010D9406010D9406010D940601D0
:100090000D9406010D9406010D9406010D940601C0
:1000A0000D9406010D9406010D9406010D940601B0
:1000B0000D9406010D9406010D9406010D940601A0
:1000C0000D9406010D9406010D9406010D94060190
:1000D0000D9406010D9406010D9406010D94060180
:1000E0000D9406010D9406010D9406010D94060170
:1000F0000D9406010D9406010D9406010D94060160
:100100000D9406010D9406010D9406010D9406014F
:100110000D9406010D9406010D9406010D9406013F
:100120000D9406010D9406010D9406010D9406012F
:100130000D9406010D9406010D9406010D9406011F
:100140000D9406010D9406010D9406010D9406010F
:100150000D9406010D9406010D9406010D940601FF
:100160000D9406010D9406010D9406010D940601EF
:100170000D9406010D9406010D9406010D940601DF
:100180000D9406010D9406010D9406010D940601CF
:100190000D9406010D9406010D9406010D940601BF
:1001A0000D9406010D9406010D9406010D940601AF
:1001B0000D9406010D9406010D9406010D9406019F
:1001C0000D9406010D94060111241FBECFEFDFE34D
:1001D000DEBFCDBF01E00CBF10E2A0E0B0E2EAE27A
:1001E000FCE002E00BBF02C007900D92A030B10707
:1001F000D9F71BBE10E2A0E0B0E201C01D92A23010
:10020000B107E1F70F9447020D9413060D94000017
:10021000813610F087550895813410F08753089582
:10022000803310F08053089580E008951F93CF939A
:10023000DF930F92CDB7DEB769830F940801182FB3
:100240006981862F0F9408011295107F810F0F90FE
:10025000DF91CF911F91089520EA36E841E050E008
:100260000F949505DC01CB01E3E0B695A795979532
:100270008795EA95D1F7805A9648A140B040BC01D5
:10028000CD012AE638E140E050E00F94B405E0EA01
:10029000F9E02683306C378313828581887F836001
:1002A00085838CE184830895CF93C82F8D3019F412
:1002B0008AE00F9454018091A10985FFFCCFC0937F
:1002C000A009CF9108958091A10987FFFCCF80916B
:1002D000A00908958F708A3010F0895A01C0805D9E
:1002E0000F9454010895CF93C82F82958F700F9467
:1002F0006A018C2F0F946A01CF910895CF93DF93F9
:10030000EC018D2F82958F700F946A018D2F0F94C1
:100310006A01CE01F4E096958795FA95E1F70F947E
:100320006A018C2F0F946A01DF91CF910895CF93CA
:10033000DF93EC0102C00F94540189918823D9F70F
:10034000DF91CF9108950F94E50108950F94DF0197
:1003500008950F942A0208950F94FD0108950895B9
:100360003BB78BBFFB0186913BBF08953BB78BBF6B
:10037000FB01879196913BBF089542E083C041E025
:1003800081C08093C00188278093C1018093C201FE
:1003900047E068D0CB0108958093C40148E062C073
:1003A0008091D00108953BB748E10D9428063BB7F2
:1003B0004AE10D9428063BB740E20D9428063BB76E
:1003C0008BBFCB0142E20D9428063BB78BBFCB011C
:1003D0000A0143E20D9428063BB76BBFFA0119BE30
:1003E000DC0140E04093CA0150E0879197918D93E2
:1003F0009D935A95D1F73BBF08953BB78BBFCB0177
:1004000044E20D9428063BB78BBFCB0145E20D9427
:1004100028063BB746E20D9428063BB78BBFCB01BD
:100420004AE20D9428063BB78BBFCB014CE20D94FA
:1004300028063BB78BBFCB014DE20D94280648E35D
:1004400011C049E30FC028ED2093340021E0209330
:10045000CC0108952091CF0127FDFCCF22272093C6
:10046000CA0108954093CA0128ED31E02093340079
:100470003093CB016091C4017091C5018091C60198
:1004800099270895FC014093CA0184910895CF9360
:10049000DF93CDB7DEB7C555D040CDBFDEBFF894F2
:1004A000E0E5F0E0128285E08093500088E08583EB
:1004B000809150008061809350008091510084FFB2
:1004C000FCCF88ED84BF94E090934000E0E6F6E036
:1004D00098E1928B938B98E09093610692E09093D1
:1004E000610690936606E0E0F8E091E090930008E2
:1004F000118212821382148225E0E0E4F0E023836B
:10050000E0E0F4E028EB3BE024873587909300049B
:100510001086118684BF9093800031E1CC24DD24C5
:100520007601E0E0F8E004C08091030481FD06C09C
:100530008091680682FDF8CF20E001C021E010A282
:1005400011A204C08091030481FD05C0809168065A
:1005500082FFF8CF01C021E0313150F480912008B2
:1005600090912108A0E0B0E0C80ED91EEA1EFB1E43
:10057000315021F02223E1F221E002C0213029F59F
:10058000E0E0F8E010920008118210A211A2E0E66B
:10059000F6E0128A138AE0EAF9E01382148283E01B
:1005A000858316821782109200041CBE88ED84BFDA
:1005B00010924000000020935000E0E5F0E015822A
:1005C000E0910020F0910120199564E0F694E79401
:1005D000D794C7946A95D1F78FE493EC0197F1F71C
:1005E00000C00000C701B6010F942C010F946301F5
:1005F0000F946301853509F0BFCF0F9463018535F2
:1006000009F0BACF0F946301853509F0B5CF0F9487
:1006100063018535E1F382E08093650683E60F94FC
:10062000540184E30F94540185E30F94540182E64E
:100630000F94540182E30F94540180E20F9454010B
:1006400086E70F94540182E30F9454018EE20F94D5
:10065000540189E30F9454018BE40F9454011D8AD3
:1006600082E0809365068DE00F9454018EE30F9431
:10067000540181E10F9454018091A1098064E0EA62
:10068000F9E081838091A10986FFFCCF82E080930D
:10069000660610E00F946301E5E1F0E0EC0FFD1F4A
:1006A000E10FF11D80838535A9F3833019F488E5C6
:1006B0008D8B03C01F5F8A3069F7812F90E0E4E1E2
:1006C000F0E0EC0FFD1FE80FF91F1082FC013297DC
:1006D00025E130E02C0F3D1FE20FF31F80818D30AC
:1006E00009F4108212E01093650683E10F9454011F
:1006F000CE0145960F9497019D89973661F0983603
:1007000020F4953609F00BC23EC09D36E1F19037DA
:1007100009F005C27EC08BE20F9454018DE00F9466
:10072000540181E10F9454018FE493EC0197F1F7A8
:1007300000C00000E0E0F8E010920008118210A272
:1007400011A210936606E0E6F6E0128A138AE0EA48
:10075000F9E01382148283E0858316821782109257
:1007600000041CBE88ED84BF10924000000081E0B0
:1007700080935000E0E5F0E01582E0910020F091D8
:10078000012019956DCF8F89688D66969FAF66970A
:100790000F941601182F898D6A8D0F941601629699
:1007A0001FAF629761961FAE619762960EAD1FAD47
:1007B0006297080F111D8E898737B9F48B8D6C8D68
:1007C0000F941601F82E66969FAD6697953641F404
:1007D0008091CF0187FDFCCFC8016F2D0F94F005EC
:1007E0008D898D3611F4F801F0828D89853629F4D2
:1007F000C8010F94D605182F02C0F80110818BE2B2
:100800000F9454018DE00F945401812F0F947301C4
:1008100027CF8BE20F9454018DE00F94540121E017
:100820002A962FAF2A978E89853619F02A961FAE01
:100830002A9729961EAE1FAE2997222433244424DA
:100840004A94542C320181E10F9454018091A10902
:100850008064E0EAF9E081838091A10986FFFCCF02
:1008600082E08093660610E00F946301E5E1F0E01A
:10087000EC0FFD1FE10FF11D80831F5F8A30A1F790
:1008800082E08093650683E10F945401E4E1F0E097
:10089000EC0FFD1FE10FF11D10828E896F890F94FF
:1008A0001601F82E888D698D0F941601082F2E964B
:1008B0008FAF2E972D961FAE2D978A8D6B8D0F942F
:1008C00016012E96CEACDFAC2E97C80ED11C8C8DA7
:1008D0006D8D0F941601182F0F0D080F0C0DEF2DB5
:1008E000F0E09F01220F331F60962EAF3FAF60975D
:1008F000AEE1B0E0AC0FBD1FA20FB31F3596EE0FF7
:10090000FF1F81E090E08C0F9D1FE80FF91F8C9175
:1009100064890F94160165968FAF65971230F1F4D4
:100920008E8D6F8D0F9416012C968FAF2C972B9672
:100930001FAE2B9788A169A10F9416012C962EAD9E
:100940003FAD2C97280F311D29962EAF3FAF299729
:100950002C968FAD2C97820F080F81C0113009F4AF
:100960007CC0112309F07BC03FEF43163FEF5306D5
:100970003FEF63063FEF730619F4260166247724E0
:1009800029968EAD9FAD299724E0880F991F2A954F
:10099000E1F74C01AA24BB24840C951CA61CB71CAF
:1009A000DD24F02E4EC0EEE1F0E0EC0FFD1FE00F75
:1009B000F11FAFE1B0E0AC0FBD1FA00FB11F8081F0
:1009C0006C910F941601E82EA0E2B0E0AC0FBD1FB1
:1009D000A00FB11FE1E2F0E0EC0FFD1FE00FF11FEF
:1009E0008C9160810F941601282F8E2D820FF80EA6
:1009F0002A963FAD2A97313049F4E1E0F0E0EC0F60
:100A0000FD1FE20DF31DE082218315C0B10180E0DE
:100A100090E0680D791D8A1D9B1D64962FAF649729
:100A200063961FAE639764964EAD5FAD64974E0DAF
:100A3000511D0F94A30182E090E0280E391E94E02E
:100A4000D90E0D2D10E060962EAD3FAD60970217C8
:100A500013070CF4A8CF0F2D02C011E001C010E065
:100A600065963FAD6597030F09F059C08EE20F946C
:100A7000540180E0281682E0380610F4812F01C06E
:100A800081E02A962FAD2A97213019F0813009F0A4
:100A900042C029962EAD3FAD29976901EE24FF246F
:100AA00084E0CC0CDD1CEE1CFF1C8A95D1F7C40C35
:100AB000D51CE61CF71C2A963FAD2A97313059F415
:100AC0008091CF0187FDFCCFCE010196B601A10137
:100AD0000F94E60517C080E0C81680E0D80682E0D3
:100AE000E80680E0F806D8F4C701B6010F94A60125
:100AF0000F94A901C701B6010F94AC010F94A9018D
:100B00000F94AF018AE20F94540122243324442429
:100B10004A94542C3201112309F495CE02C08DE27F
:100B200001C08BE20F9454019BCD629FD001739F53
:100B3000F001829FE00DF11D649FE00DF11D929F79
:100B4000F00D839FF00D749FF00D659FF00D9927B8
:100B5000729FB00DE11DF91F639FB00DE11DF91FDC
:100B6000BD01CF0111240895A1E21A2EAA1BBB1BBF
:100B7000FD010DC0AA1FBB1FEE1FFF1FA217B30769
:100B8000E407F50720F0A21BB30BE40BF50B661F7F
:100B9000771F881F991F1A9469F760957095809543
:100BA00090959B01AC01BD01CF01089503D08081D8
:100BB00099270895E0ECF1E0378537FDFDCF3485C6
:100BC00038603487FC01E050F04F0895DC01CB0120
:100BD00003C02D910F94F10541505040D0F7089576
:100BE000262FE0ECF1E0378537FDFDCF3485377FE8
:100BF0003487378531FF09C036E3328738ED34BF9B
:100C000031E03387378537FDFDCF33E3328780838B
:100C100091831282248325E3228728ED31E024BFCB
:0A0C2000338701960895F894FFCF82
:100C2A00EE27FF2719BEDC0143E24093CA0150E0D8
:100C3A002DE90D901D9020933400E89532965A952F
:100C4A00C1F711240895FC014093CA012DE92093AC
:100C5A003400E89511243BBF0895FC014093CA0172
:100C6A004F935F936F9364E06093A2004CE051E06E
:100C7A00509348000DE900933400E8954093CD0164
:0E0C8A00889511243BBF6F915F914F910895A3
:0400000320000000D9
:00000001FF
